{
  "contractName": "ZKPayroll",
  "abi": [
    {
      "inputs": [
        {
          "internalType": "address",
          "name": "_verifiersAddress",
          "type": "address"
        }
      ],
      "stateMutability": "nonpayable",
      "type": "constructor"
    },
    {
      "anonymous": false,
      "inputs": [
        {
          "indexed": true,
          "internalType": "uint256",
          "name": "groupId",
          "type": "uint256"
        },
        {
          "indexed": false,
          "internalType": "uint8",
          "name": "depth",
          "type": "uint8"
        },
        {
          "indexed": false,
          "internalType": "uint256",
          "name": "zeroValue",
          "type": "uint256"
        }
      ],
      "name": "GroupCreated",
      "type": "event"
    },
    {
      "anonymous": false,
      "inputs": [
        {
          "indexed": true,
          "internalType": "uint256",
          "name": "groupId",
          "type": "uint256"
        },
        {
          "indexed": false,
          "internalType": "uint256",
          "name": "identityCommitment",
          "type": "uint256"
        },
        {
          "indexed": false,
          "internalType": "uint256",
          "name": "root",
          "type": "uint256"
        }
      ],
      "name": "MemberAdded",
      "type": "event"
    },
    {
      "anonymous": false,
      "inputs": [
        {
          "indexed": true,
          "internalType": "uint256",
          "name": "groupId",
          "type": "uint256"
        },
        {
          "indexed": false,
          "internalType": "uint256",
          "name": "identityCommitment",
          "type": "uint256"
        },
        {
          "indexed": false,
          "internalType": "uint256",
          "name": "root",
          "type": "uint256"
        }
      ],
      "name": "MemberRemoved",
      "type": "event"
    },
    {
      "anonymous": false,
      "inputs": [
        {
          "indexed": false,
          "internalType": "uint256",
          "name": "nullifierHash",
          "type": "uint256"
        }
      ],
      "name": "NullifierHashAdded",
      "type": "event"
    },
    {
      "anonymous": false,
      "inputs": [
        {
          "indexed": false,
          "internalType": "string",
          "name": "_employeeName",
          "type": "string"
        },
        {
          "indexed": false,
          "internalType": "uint256",
          "name": "_employeeId",
          "type": "uint256"
        }
      ],
      "name": "employeeCreated",
      "type": "event"
    },
    {
      "anonymous": false,
      "inputs": [
        {
          "indexed": false,
          "internalType": "address",
          "name": "_employerAddress",
          "type": "address"
        }
      ],
      "name": "employerCreated",
      "type": "event"
    },
    {
      "anonymous": false,
      "inputs": [
        {
          "indexed": false,
          "internalType": "uint256",
          "name": "_note",
          "type": "uint256"
        }
      ],
      "name": "noteCreated",
      "type": "event"
    },
    {
      "inputs": [
        {
          "internalType": "address",
          "name": "",
          "type": "address"
        }
      ],
      "name": "addressToemployer",
      "outputs": [
        {
          "internalType": "uint256",
          "name": "employerCommitment",
          "type": "uint256"
        },
        {
          "internalType": "uint256",
          "name": "employerId",
          "type": "uint256"
        },
        {
          "internalType": "enum IZKPayroll.employerState",
          "name": "state",
          "type": "uint8"
        },
        {
          "internalType": "bool",
          "name": "commitmentCheck",
          "type": "bool"
        }
      ],
      "stateMutability": "view",
      "type": "function",
      "constant": true
    },
    {
      "inputs": [],
      "name": "employeesCount",
      "outputs": [
        {
          "internalType": "uint256",
          "name": "",
          "type": "uint256"
        }
      ],
      "stateMutability": "view",
      "type": "function",
      "constant": true
    },
    {
      "inputs": [],
      "name": "employerCount",
      "outputs": [
        {
          "internalType": "uint256",
          "name": "",
          "type": "uint256"
        }
      ],
      "stateMutability": "view",
      "type": "function",
      "constant": true
    },
    {
      "inputs": [
        {
          "internalType": "uint256",
          "name": "groupId",
          "type": "uint256"
        }
      ],
      "name": "getDepth",
      "outputs": [
        {
          "internalType": "uint8",
          "name": "",
          "type": "uint8"
        }
      ],
      "stateMutability": "view",
      "type": "function",
      "constant": true
    },
    {
      "inputs": [
        {
          "internalType": "uint256",
          "name": "groupId",
          "type": "uint256"
        }
      ],
      "name": "getNumberOfLeaves",
      "outputs": [
        {
          "internalType": "uint256",
          "name": "",
          "type": "uint256"
        }
      ],
      "stateMutability": "view",
      "type": "function",
      "constant": true
    },
    {
      "inputs": [
        {
          "internalType": "uint256",
          "name": "groupId",
          "type": "uint256"
        }
      ],
      "name": "getRoot",
      "outputs": [
        {
          "internalType": "uint256",
          "name": "",
          "type": "uint256"
        }
      ],
      "stateMutability": "view",
      "type": "function",
      "constant": true
    },
    {
      "inputs": [
        {
          "internalType": "address",
          "name": "_employerAddress",
          "type": "address"
        }
      ],
      "name": "createEmployer",
      "outputs": [],
      "stateMutability": "nonpayable",
      "type": "function"
    },
    {
      "inputs": [
        {
          "internalType": "uint256",
          "name": "_commitment",
          "type": "uint256"
        }
      ],
      "name": "addEmployerCommitment",
      "outputs": [],
      "stateMutability": "nonpayable",
      "type": "function"
    },
    {
      "inputs": [
        {
          "internalType": "string",
          "name": "_employeeName",
          "type": "string"
        }
      ],
      "name": "addEmployee",
      "outputs": [],
      "stateMutability": "nonpayable",
      "type": "function"
    },
    {
      "inputs": [
        {
          "internalType": "uint256",
          "name": "_commitment",
          "type": "uint256"
        },
        {
          "internalType": "uint256",
          "name": "_id",
          "type": "uint256"
        }
      ],
      "name": "addEmployeeCommitment",
      "outputs": [],
      "stateMutability": "nonpayable",
      "type": "function"
    },
    {
      "inputs": [],
      "name": "getEmployeeIdList",
      "outputs": [
        {
          "internalType": "uint256[]",
          "name": "_employeeIdList",
          "type": "uint256[]"
        }
      ],
      "stateMutability": "view",
      "type": "function",
      "constant": true
    },
    {
      "inputs": [],
      "name": "getEmployerList",
      "outputs": [
        {
          "internalType": "address[]",
          "name": "_employerList",
          "type": "address[]"
        }
      ],
      "stateMutability": "view",
      "type": "function",
      "constant": true
    },
    {
      "inputs": [
        {
          "internalType": "uint256",
          "name": "_id",
          "type": "uint256"
        }
      ],
      "name": "getEmployeeDetails",
      "outputs": [
        {
          "internalType": "string",
          "name": "_employeeName",
          "type": "string"
        },
        {
          "internalType": "enum IZKPayroll.employeeState",
          "name": "_state",
          "type": "uint8"
        },
        {
          "internalType": "uint256",
          "name": "_employerId",
          "type": "uint256"
        },
        {
          "internalType": "uint256",
          "name": "_employeeCommitment",
          "type": "uint256"
        }
      ],
      "stateMutability": "view",
      "type": "function",
      "constant": true
    },
    {
      "inputs": [
        {
          "internalType": "uint256",
          "name": "_id",
          "type": "uint256"
        }
      ],
      "name": "getEmployeeEmployerId",
      "outputs": [
        {
          "internalType": "uint256",
          "name": "_employerId",
          "type": "uint256"
        }
      ],
      "stateMutability": "view",
      "type": "function",
      "constant": true
    },
    {
      "inputs": [],
      "name": "getLeaves",
      "outputs": [
        {
          "internalType": "uint256[]",
          "name": "_leaves",
          "type": "uint256[]"
        }
      ],
      "stateMutability": "view",
      "type": "function",
      "constant": true
    },
    {
      "inputs": [],
      "name": "addfundToContract",
      "outputs": [],
      "stateMutability": "payable",
      "type": "function",
      "payable": true
    },
    {
      "inputs": [],
      "name": "getAvailableFund",
      "outputs": [
        {
          "internalType": "uint256",
          "name": "_fundValue",
          "type": "uint256"
        }
      ],
      "stateMutability": "view",
      "type": "function",
      "constant": true
    },
    {
      "inputs": [
        {
          "internalType": "uint256",
          "name": "_employeeId",
          "type": "uint256"
        },
        {
          "internalType": "uint256",
          "name": "_salary",
          "type": "uint256"
        },
        {
          "internalType": "uint256",
          "name": "_receivedCommitment",
          "type": "uint256"
        },
        {
          "internalType": "uint256",
          "name": "_identityCommitment",
          "type": "uint256"
        }
      ],
      "name": "addNotes",
      "outputs": [],
      "stateMutability": "nonpayable",
      "type": "function"
    },
    {
      "inputs": [
        {
          "internalType": "uint256",
          "name": "_a",
          "type": "uint256"
        }
      ],
      "name": "addToleaves",
      "outputs": [],
      "stateMutability": "nonpayable",
      "type": "function"
    },
    {
      "inputs": [
        {
          "internalType": "uint256",
          "name": "_withdrawalNotes",
          "type": "uint256"
        },
        {
          "internalType": "address payable",
          "name": "_withdrawalAddress",
          "type": "address"
        },
        {
          "internalType": "bytes32",
          "name": "withdraw",
          "type": "bytes32"
        },
        {
          "internalType": "uint256",
          "name": "nullifierHash",
          "type": "uint256"
        },
        {
          "internalType": "uint256",
          "name": "employerId",
          "type": "uint256"
        },
        {
          "internalType": "uint256[8]",
          "name": "proof",
          "type": "uint256[8]"
        }
      ],
      "name": "withdrawNotes",
      "outputs": [],
      "stateMutability": "nonpayable",
      "type": "function"
    }
  ],
  "bytecode": "0x60806040523480156200001157600080fd5b506040516200370e3803806200370e83398181016040528101906200003791906200013f565b33600c60006101000a81548173ffffffffffffffffffffffffffffffffffffffff021916908373ffffffffffffffffffffffffffffffffffffffff1602179055508060026000601460ff16815260200190815260200160002060006101000a81548173ffffffffffffffffffffffffffffffffffffffff021916908373ffffffffffffffffffffffffffffffffffffffff1602179055505062000171565b600080fd5b600073ffffffffffffffffffffffffffffffffffffffff82169050919050565b60006200010782620000da565b9050919050565b6200011981620000fa565b81146200012557600080fd5b50565b60008151905062000139816200010e565b92915050565b600060208284031215620001585762000157620000d5565b5b6000620001688482850162000128565b91505092915050565b61358d80620001816000396000f3fe60806040526004361061011f5760003560e01c806375e618c9116100a05780639b24b3b0116100645780639b24b3b0146103b3578063a98b371b146103f0578063ad2b303714610430578063b9c78c2b1461045b578063bdd4a068146104985761011f565b806375e618c9146102b957806379ceb311146102f65780638b3aa6a41461031f5780638e543a7c1461034857806390731223146103735761011f565b80632d2d03a6116100e75780632d2d03a6146101ea5780633d2ba1d9146102135780634b62c4661461023c5780635089f38d146102675780636693c928146102905761011f565b80630bbcf45b1461012457806319b05bc6146101615780631d4bc9481461018c5780632308480b146101b75780632369ac45146101e0575b600080fd5b34801561013057600080fd5b5061014b60048036038101906101469190612213565b6104c3565b604051610158919061224f565b60405180910390f35b34801561016d57600080fd5b50610176610600565b6040516101839190612328565b60405180910390f35b34801561019857600080fd5b506101a161074f565b6040516101ae919061243a565b60405180910390f35b3480156101c357600080fd5b506101de60048036038101906101d99190612488565b61086f565b005b6101e8610a33565b005b3480156101f657600080fd5b50610211600480360381019061020c91906125fb565b610b42565b005b34801561021f57600080fd5b5061023a600480360381019061023591906126df565b610e99565b005b34801561024857600080fd5b50610251610f90565b60405161025e919061224f565b60405180910390f35b34801561027357600080fd5b5061028e6004803603810190610289919061276d565b610f96565b005b34801561029c57600080fd5b506102b760048036038101906102b29190612213565b6113b3565b005b3480156102c557600080fd5b506102e060048036038101906102db9190612213565b6114bf565b6040516102ed91906127f0565b60405180910390f35b34801561030257600080fd5b5061031d60048036038101906103189190612213565b6114ec565b005b34801561032b57600080fd5b506103466004803603810190610341919061280b565b6116de565b005b34801561035457600080fd5b5061035d611796565b60405161036a919061224f565b60405180910390f35b34801561037f57600080fd5b5061039a60048036038101906103959190612488565b611894565b6040516103aa94939291906128dd565b60405180910390f35b3480156103bf57600080fd5b506103da60048036038101906103d59190612213565b6118de565b6040516103e7919061224f565b60405180910390f35b3480156103fc57600080fd5b5061041760048036038101906104129190612213565b6118fe565b60405161042794939291906129f2565b60405180910390f35b34801561043c57600080fd5b50610445611b0e565b6040516104529190612328565b60405180910390f35b34801561046757600080fd5b50610482600480360381019061047d9190612213565b611b66565b60405161048f919061224f565b60405180910390f35b3480156104a457600080fd5b506104ad611b86565b6040516104ba919061224f565b60405180910390f35b60006104cd6120a0565b600560008481526020019081526020016000206040518060c001604052908160008201548152602001600182015481526020016002820154815260200160038201805461051990612a6d565b80601f016020809104026020016040519081016040528092919081815260200182805461054590612a6d565b80156105925780601f1061056757610100808354040283529160200191610592565b820191906000526020600020905b81548152906001019060200180831161057557829003601f168201915b505050505081526020016004820160009054906101000a900460ff1660018111156105c0576105bf61284b565b5b60018111156105d2576105d161284b565b5b81526020016004820160019054906101000a900460ff16151515158152505090508060400151915050919050565b6060336001808111156106165761061561284b565b5b600660008373ffffffffffffffffffffffffffffffffffffffff1673ffffffffffffffffffffffffffffffffffffffff16815260200190815260200160002060020160009054906101000a900460ff1660018111156106785761067761284b565b5b146106b8576040517f08c379a00000000000000000000000000000000000000000000000000000000081526004016106af90612aeb565b60405180910390fd5b600760003373ffffffffffffffffffffffffffffffffffffffff1673ffffffffffffffffffffffffffffffffffffffff16815260200190815260200160002060000180548060200260200160405190810160405280929190818152602001828054801561074457602002820191906000526020600020905b815481526020019060010190808311610730575b505050505091505090565b6060338073ffffffffffffffffffffffffffffffffffffffff16600c60009054906101000a900473ffffffffffffffffffffffffffffffffffffffff1673ffffffffffffffffffffffffffffffffffffffff16146107e2576040517f08c379a00000000000000000000000000000000000000000000000000000000081526004016107d990612b57565b60405180910390fd5b600380548060200260200160405190810160405280929190818152602001828054801561086457602002820191906000526020600020905b8160009054906101000a900473ffffffffffffffffffffffffffffffffffffffff1673ffffffffffffffffffffffffffffffffffffffff168152602001906001019080831161081a575b505050505091505090565b6001600a60008282546108829190612ba6565b92505081905550610898600a5460146000611b8c565b6108a06120ea565b600a548160200181815250506001816040019060018111156108c5576108c461284b565b5b908160018111156108d9576108d861284b565b5b81525050600081606001901515908115158152505080600660008473ffffffffffffffffffffffffffffffffffffffff1673ffffffffffffffffffffffffffffffffffffffff168152602001908152602001600020600082015181600001556020820151816001015560408201518160020160006101000a81548160ff0219169083600181111561096d5761096c61284b565b5b021790555060608201518160020160016101000a81548160ff0219169083151502179055509050506003829080600181540180825580915050600190039060005260206000200160009091909190916101000a81548173ffffffffffffffffffffffffffffffffffffffff021916908373ffffffffffffffffffffffffffffffffffffffff1602179055507fbc10ec19de4ce59ac4b5972414228c992109c99041af4a98ee298aa3bfffafa382604051610a279190612c0b565b60405180910390a15050565b33600180811115610a4757610a4661284b565b5b600660008373ffffffffffffffffffffffffffffffffffffffff1673ffffffffffffffffffffffffffffffffffffffff16815260200190815260200160002060020160009054906101000a900460ff166001811115610aa957610aa861284b565b5b14610ae9576040517f08c379a0000000000000000000000000000000000000000000000000000000008152600401610ae090612aeb565b60405180910390fd5b34600860003373ffffffffffffffffffffffffffffffffffffffff1673ffffffffffffffffffffffffffffffffffffffff1681526020019081526020016000206000828254610b389190612ba6565b9250508190555050565b33600180811115610b5657610b5561284b565b5b600660008373ffffffffffffffffffffffffffffffffffffffff1673ffffffffffffffffffffffffffffffffffffffff16815260200190815260200160002060020160009054906101000a900460ff166001811115610bb857610bb761284b565b5b14610bf8576040517f08c379a0000000000000000000000000000000000000000000000000000000008152600401610bef90612aeb565b60405180910390fd5b604051602001610c0790612c57565b6040516020818303038152906040528051906020012082604051602001610c2e9190612c9d565b604051602081830303815290604052805190602001201415610c85576040517f08c379a0000000000000000000000000000000000000000000000000000000008152600401610c7c90612d00565b60405180910390fd5b610c8d6120a0565b6001600b6000828254610ca09190612ba6565b92505081905550600b54816020018181525050828160600181905250600181608001906001811115610cd557610cd461284b565b5b90816001811115610ce957610ce861284b565b5b81525050600660003373ffffffffffffffffffffffffffffffffffffffff1673ffffffffffffffffffffffffffffffffffffffff1681526020019081526020016000206001015481604001818152505060008160a0019015159081151581525050600760003373ffffffffffffffffffffffffffffffffffffffff1673ffffffffffffffffffffffffffffffffffffffff168152602001908152602001600020600001600b5490806001815401808255809150506001900390600052602060002001600090919091909150558060056000600b5481526020019081526020016000206000820151816000015560208201518160010155604082015181600201556060820151816003019080519060200190610e05929190612126565b5060808201518160040160006101000a81548160ff02191690836001811115610e3157610e3061284b565b5b021790555060a08201518160040160016101000a81548160ff0219169083151502179055509050507f29f60a863dde0da64901033655ff093ef68ef23d333bf462fb8552423ab759bd83600b54604051610e8c929190612d20565b60405180910390a1505050565b6000610ea4836118de565b9050600060026000601460ff16815260200190815260200160002060009054906101000a900473ffffffffffffffffffffffffffffffffffffffff169050610ef0868387878786611cfa565b6000600960008a81526020019081526020016000205490508773ffffffffffffffffffffffffffffffffffffffff166108fc829081150290604051600060405180830381858888f19350505050610f7c576040517f08c379a0000000000000000000000000000000000000000000000000000000008152600401610f7390612d9c565b60405180910390fd5b610f8586611f23565b505050505050505050565b600a5481565b33600180811115610faa57610fa961284b565b5b600660008373ffffffffffffffffffffffffffffffffffffffff1673ffffffffffffffffffffffffffffffffffffffff16815260200190815260200160002060020160009054906101000a900460ff16600181111561100c5761100b61284b565b5b1461104c576040517f08c379a000000000000000000000000000000000000000000000000000000000815260040161104390612aeb565b60405180910390fd5b6110546120ea565b61105c6120a0565b600660003373ffffffffffffffffffffffffffffffffffffffff1673ffffffffffffffffffffffffffffffffffffffff16815260200190815260200160002060405180608001604052908160008201548152602001600182015481526020016002820160009054906101000a900460ff1660018111156110df576110de61284b565b5b60018111156110f1576110f061284b565b5b81526020016002820160019054906101000a900460ff1615151515815250509150600560008881526020019081526020016000206040518060c001604052908160008201548152602001600182015481526020016002820154815260200160038201805461115e90612a6d565b80601f016020809104026020016040519081016040528092919081815260200182805461118a90612a6d565b80156111d75780601f106111ac576101008083540402835291602001916111d7565b820191906000526020600020905b8154815290600101906020018083116111ba57829003601f168201915b505050505081526020016004820160009054906101000a900460ff1660018111156112055761120461284b565b5b60018111156112175761121661284b565b5b81526020016004820160019054906101000a900460ff16151515158152505090506000826020015190506000600860003373ffffffffffffffffffffffffffffffffffffffff1673ffffffffffffffffffffffffffffffffffffffff168152602001908152602001600020549050868460000151146112cb576040517f08c379a00000000000000000000000000000000000000000000000000000000081526004016112c290612e2e565b60405180910390fd5b8781101561130e576040517f08c379a000000000000000000000000000000000000000000000000000000000815260040161130590612ec0565b60405180910390fd5b6113188287611f51565b876009600088815260200190815260200160002081905550878161133c9190612ee0565b600860003373ffffffffffffffffffffffffffffffffffffffff1673ffffffffffffffffffffffffffffffffffffffff168152602001908152602001600020819055506004869080600181540180825580915050600190039060005260206000200160009091909190915055505050505050505050565b336001808111156113c7576113c661284b565b5b600660008373ffffffffffffffffffffffffffffffffffffffff1673ffffffffffffffffffffffffffffffffffffffff16815260200190815260200160002060020160009054906101000a900460ff1660018111156114295761142861284b565b5b14611469576040517f08c379a000000000000000000000000000000000000000000000000000000000815260040161146090612aeb565b60405180910390fd5b6000600660003373ffffffffffffffffffffffffffffffffffffffff1673ffffffffffffffffffffffffffffffffffffffff1681526020019081526020016000206001015490506114ba8184611f51565b505050565b60006001600083815260200190815260200160002060000160009054906101000a900460ff169050919050565b33600180811115611500576114ff61284b565b5b600660008373ffffffffffffffffffffffffffffffffffffffff1673ffffffffffffffffffffffffffffffffffffffff16815260200190815260200160002060020160009054906101000a900460ff1660018111156115625761156161284b565b5b146115a2576040517f08c379a000000000000000000000000000000000000000000000000000000000815260040161159990612aeb565b60405180910390fd5b60001515600660003373ffffffffffffffffffffffffffffffffffffffff1673ffffffffffffffffffffffffffffffffffffffff16815260200190815260200160002060020160019054906101000a900460ff16151514611638576040517f08c379a000000000000000000000000000000000000000000000000000000000815260040161162f90612f60565b60405180910390fd5b81600660003373ffffffffffffffffffffffffffffffffffffffff1673ffffffffffffffffffffffffffffffffffffffff168152602001908152602001600020600001819055506001600660003373ffffffffffffffffffffffffffffffffffffffff1673ffffffffffffffffffffffffffffffffffffffff16815260200190815260200160002060020160016101000a81548160ff0219169083151502179055505050565b600015156005600083815260200190815260200160002060040160019054906101000a900460ff16151514611748576040517f08c379a000000000000000000000000000000000000000000000000000000000815260040161173f90612f60565b60405180910390fd5b81600560008381526020019081526020016000206000018190555060016005600083815260200190815260200160002060040160016101000a81548160ff0219169083151502179055505050565b6000336001808111156117ac576117ab61284b565b5b600660008373ffffffffffffffffffffffffffffffffffffffff1673ffffffffffffffffffffffffffffffffffffffff16815260200190815260200160002060020160009054906101000a900460ff16600181111561180e5761180d61284b565b5b1461184e576040517f08c379a000000000000000000000000000000000000000000000000000000000815260040161184590612aeb565b60405180910390fd5b600860003373ffffffffffffffffffffffffffffffffffffffff1673ffffffffffffffffffffffffffffffffffffffff1681526020019081526020016000205491505090565b60066020528060005260406000206000915090508060000154908060010154908060020160009054906101000a900460ff16908060020160019054906101000a900460ff16905084565b600060016000838152602001908152602001600020600101549050919050565b60606000806000336001808111156119195761191861284b565b5b600660008373ffffffffffffffffffffffffffffffffffffffff1673ffffffffffffffffffffffffffffffffffffffff16815260200190815260200160002060020160009054906101000a900460ff16600181111561197b5761197a61284b565b5b146119bb576040517f08c379a00000000000000000000000000000000000000000000000000000000081526004016119b290612aeb565b60405180910390fd5b6119c36120a0565b600560008881526020019081526020016000206040518060c0016040529081600082015481526020016001820154815260200160028201548152602001600382018054611a0f90612a6d565b80601f0160208091040260200160405190810160405280929190818152602001828054611a3b90612a6d565b8015611a885780601f10611a5d57610100808354040283529160200191611a88565b820191906000526020600020905b815481529060010190602001808311611a6b57829003601f168201915b505050505081526020016004820160009054906101000a900460ff166001811115611ab657611ab561284b565b5b6001811115611ac857611ac761284b565b5b81526020016004820160019054906101000a900460ff16151515158152505090508060600151816080015182604001518360000151955095509550955050509193509193565b60606004805480602002602001604051908101604052809291908181526020018280548015611b5c57602002820191906000526020600020905b815481526020019060010190808311611b48575b5050505050905090565b600060016000838152602001908152602001600020600201549050919050565b600b5481565b7f30644e72e131a029b85045b68181585d2833e84879b9709143e1f593f00000018310611bee576040517f08c379a0000000000000000000000000000000000000000000000000000000008152600401611be590612ff2565b60405180910390fd5b6000611bf9846114bf565b60ff1614611c3c576040517f08c379a0000000000000000000000000000000000000000000000000000000008152600401611c3390613084565b60405180910390fd5b6001600084815260200190815260200160002073__IncrementalBinaryTree_________________63b4bdd117909184846040518463ffffffff1660e01b8152600401611c8b939291906130c9565b60006040518083038186803b158015611ca357600080fd5b505af4158015611cb7573d6000803e3d6000fd5b50505050827fc3082aa494e9088c2c9f0fb62a0b6bd46e6699acb94cfba35be29b95a93f68c88383604051611ced929190613100565b60405180910390a2505050565b60008085815260200190815260200160002060009054906101000a900460ff1615611d5a576040517f08c379a0000000000000000000000000000000000000000000000000000000008152600401611d519061319b565b60405180910390fd5b6000611d6587612069565b90508173ffffffffffffffffffffffffffffffffffffffff16635fe8c13b604051806040016040528086600060088110611da257611da16131bb565b5b6020020135815260200186600160088110611dc057611dbf6131bb565b5b60200201358152506040518060400160405280604051806040016040528089600260088110611df257611df16131bb565b5b6020020135815260200189600360088110611e1057611e0f6131bb565b5b60200201358152508152602001604051806040016040528089600460088110611e3c57611e3b6131bb565b5b6020020135815260200189600560088110611e5a57611e596131bb565b5b6020020135815250815250604051806040016040528088600660088110611e8457611e836131bb565b5b6020020135815260200188600760088110611ea257611ea16131bb565b5b602002013581525060405180608001604052808c81526020018b81526020018781526020018a8152506040518563ffffffff1660e01b8152600401611eea94939291906133f0565b60006040518083038186803b158015611f0257600080fd5b505afa158015611f16573d6000803e3d6000fd5b5050505050505050505050565b600160008083815260200190815260200160002060006101000a81548160ff02191690831515021790555050565b6000611f5c836114bf565b60ff161415611fa0576040517f08c379a0000000000000000000000000000000000000000000000000000000008152600401611f97906134a9565b60405180910390fd5b6001600083815260200190815260200160002073__IncrementalBinaryTree_________________63168703fa9091836040518363ffffffff1660e01b8152600401611fed9291906134c9565b60006040518083038186803b15801561200557600080fd5b505af4158015612019573d6000803e3d6000fd5b505050506000612028836118de565b9050827f03fd27265b7dd1f55558bedc22a58fa3b10afb1be776e614bd5a7ba7b9499406838360405161205c9291906134f2565b60405180910390a2505050565b600060088260405160200161207e919061353c565b6040516020818303038152906040528051906020012060001c901c9050919050565b6040518060c0016040528060008152602001600081526020016000815260200160608152602001600060018111156120db576120da61284b565b5b81526020016000151581525090565b60405180608001604052806000815260200160008152602001600060018111156121175761211661284b565b5b81526020016000151581525090565b82805461213290612a6d565b90600052602060002090601f016020900481019282612154576000855561219b565b82601f1061216d57805160ff191683800117855561219b565b8280016001018555821561219b579182015b8281111561219a57825182559160200191906001019061217f565b5b5090506121a891906121ac565b5090565b5b808211156121c55760008160009055506001016121ad565b5090565b6000604051905090565b600080fd5b600080fd5b6000819050919050565b6121f0816121dd565b81146121fb57600080fd5b50565b60008135905061220d816121e7565b92915050565b600060208284031215612229576122286121d3565b5b6000612237848285016121fe565b91505092915050565b612249816121dd565b82525050565b60006020820190506122646000830184612240565b92915050565b600081519050919050565b600082825260208201905092915050565b6000819050602082019050919050565b61229f816121dd565b82525050565b60006122b18383612296565b60208301905092915050565b6000602082019050919050565b60006122d58261226a565b6122df8185612275565b93506122ea83612286565b8060005b8381101561231b57815161230288826122a5565b975061230d836122bd565b9250506001810190506122ee565b5085935050505092915050565b6000602082019050818103600083015261234281846122ca565b905092915050565b600081519050919050565b600082825260208201905092915050565b6000819050602082019050919050565b600073ffffffffffffffffffffffffffffffffffffffff82169050919050565b60006123a182612376565b9050919050565b6123b181612396565b82525050565b60006123c383836123a8565b60208301905092915050565b6000602082019050919050565b60006123e78261234a565b6123f18185612355565b93506123fc83612366565b8060005b8381101561242d57815161241488826123b7565b975061241f836123cf565b925050600181019050612400565b5085935050505092915050565b6000602082019050818103600083015261245481846123dc565b905092915050565b61246581612396565b811461247057600080fd5b50565b6000813590506124828161245c565b92915050565b60006020828403121561249e5761249d6121d3565b5b60006124ac84828501612473565b91505092915050565b600080fd5b600080fd5b6000601f19601f8301169050919050565b7f4e487b7100000000000000000000000000000000000000000000000000000000600052604160045260246000fd5b612508826124bf565b810181811067ffffffffffffffff82111715612527576125266124d0565b5b80604052505050565b600061253a6121c9565b905061254682826124ff565b919050565b600067ffffffffffffffff821115612566576125656124d0565b5b61256f826124bf565b9050602081019050919050565b82818337600083830152505050565b600061259e6125998461254b565b612530565b9050828152602081018484840111156125ba576125b96124ba565b5b6125c584828561257c565b509392505050565b600082601f8301126125e2576125e16124b5565b5b81356125f284826020860161258b565b91505092915050565b600060208284031215612611576126106121d3565b5b600082013567ffffffffffffffff81111561262f5761262e6121d8565b5b61263b848285016125cd565b91505092915050565b600061264f82612376565b9050919050565b61265f81612644565b811461266a57600080fd5b50565b60008135905061267c81612656565b92915050565b6000819050919050565b61269581612682565b81146126a057600080fd5b50565b6000813590506126b28161268c565b92915050565b600080fd5b6000819050826020600802820111156126d9576126d86126b8565b5b92915050565b6000806000806000806101a087890312156126fd576126fc6121d3565b5b600061270b89828a016121fe565b965050602061271c89828a0161266d565b955050604061272d89828a016126a3565b945050606061273e89828a016121fe565b935050608061274f89828a016121fe565b92505060a061276089828a016126bd565b9150509295509295509295565b60008060008060808587031215612787576127866121d3565b5b6000612795878288016121fe565b94505060206127a6878288016121fe565b93505060406127b7878288016121fe565b92505060606127c8878288016121fe565b91505092959194509250565b600060ff82169050919050565b6127ea816127d4565b82525050565b600060208201905061280560008301846127e1565b92915050565b60008060408385031215612822576128216121d3565b5b6000612830858286016121fe565b9250506020612841858286016121fe565b9150509250929050565b7f4e487b7100000000000000000000000000000000000000000000000000000000600052602160045260246000fd5b6002811061288b5761288a61284b565b5b50565b600081905061289c8261287a565b919050565b60006128ac8261288e565b9050919050565b6128bc816128a1565b82525050565b60008115159050919050565b6128d7816128c2565b82525050565b60006080820190506128f26000830187612240565b6128ff6020830186612240565b61290c60408301856128b3565b61291960608301846128ce565b95945050505050565b600081519050919050565b600082825260208201905092915050565b60005b8381101561295c578082015181840152602081019050612941565b8381111561296b576000848401525b50505050565b600061297c82612922565b612986818561292d565b935061299681856020860161293e565b61299f816124bf565b840191505092915050565b600281106129bb576129ba61284b565b5b50565b60008190506129cc826129aa565b919050565b60006129dc826129be565b9050919050565b6129ec816129d1565b82525050565b60006080820190508181036000830152612a0c8187612971565b9050612a1b60208301866129e3565b612a286040830185612240565b612a356060830184612240565b95945050505050565b7f4e487b7100000000000000000000000000000000000000000000000000000000600052602260045260246000fd5b60006002820490506001821680612a8557607f821691505b60208210811415612a9957612a98612a3e565b5b50919050565b7f456d706c6f796572206973206e6f742061637469766500000000000000000000600082015250565b6000612ad560168361292d565b9150612ae082612a9f565b602082019050919050565b60006020820190508181036000830152612b0481612ac8565b9050919050565b7f53656e646572206973206e6f742041646d696e2e000000000000000000000000600082015250565b6000612b4160148361292d565b9150612b4c82612b0b565b602082019050919050565b60006020820190508181036000830152612b7081612b34565b9050919050565b7f4e487b7100000000000000000000000000000000000000000000000000000000600052601160045260246000fd5b6000612bb1826121dd565b9150612bbc836121dd565b9250827fffffffffffffffffffffffffffffffffffffffffffffffffffffffffffffffff03821115612bf157612bf0612b77565b5b828201905092915050565b612c0581612396565b82525050565b6000602082019050612c206000830184612bfc565b92915050565b600081905092915050565b50565b6000612c41600083612c26565b9150612c4c82612c31565b600082019050919050565b6000612c6282612c34565b9150819050919050565b6000612c7782612922565b612c818185612c26565b9350612c9181856020860161293e565b80840191505092915050565b6000612ca98284612c6c565b915081905092915050565b7f506c6561736520456e74657220656d706c6f7965654e616d6500000000000000600082015250565b6000612cea60198361292d565b9150612cf582612cb4565b602082019050919050565b60006020820190508181036000830152612d1981612cdd565b9050919050565b60006040820190508181036000830152612d3a8185612971565b9050612d496020830184612240565b9392505050565b7f4163636f756e74207472616e73666572206661696c2e00000000000000000000600082015250565b6000612d8660168361292d565b9150612d9182612d50565b602082019050919050565b60006020820190508181036000830152612db581612d79565b9050919050565b7f456d706c6f79657220636f6d6d69746d656e74206973206e6f742076616c696460008201527f2e00000000000000000000000000000000000000000000000000000000000000602082015250565b6000612e1860218361292d565b9150612e2382612dbc565b604082019050919050565b60006020820190508181036000830152612e4781612e0b565b9050919050565b7f526571756972652066756e64206973206e6f7420617661696c61626c652c205060008201527f6c65617365206164642066756e642e0000000000000000000000000000000000602082015250565b6000612eaa602f8361292d565b9150612eb582612e4e565b604082019050919050565b60006020820190508181036000830152612ed981612e9d565b9050919050565b6000612eeb826121dd565b9150612ef6836121dd565b925082821015612f0957612f08612b77565b5b828203905092915050565b7f416c7265616479207570646174656420636f6d6d69746d656e74000000000000600082015250565b6000612f4a601a8361292d565b9150612f5582612f14565b602082019050919050565b60006020820190508181036000830152612f7981612f3d565b9050919050565b7f53656d6170686f726547726f7570733a2067726f7570206964206d757374206260008201527f65203c20534e41524b5f5343414c41525f4649454c4400000000000000000000602082015250565b6000612fdc60368361292d565b9150612fe782612f80565b604082019050919050565b6000602082019050818103600083015261300b81612fcf565b9050919050565b7f53656d6170686f726547726f7570733a2067726f757020616c7265616479206560008201527f7869737473000000000000000000000000000000000000000000000000000000602082015250565b600061306e60258361292d565b915061307982613012565b604082019050919050565b6000602082019050818103600083015261309d81613061565b9050919050565b8082525050565b6130b4816127d4565b82525050565b6130c3816121dd565b82525050565b60006060820190506130de60008301866130a4565b6130eb60208301856130ab565b6130f860408301846130ba565b949350505050565b600060408201905061311560008301856127e1565b6131226020830184612240565b9392505050565b7f53656d6170686f7265436f72653a20796f752063616e6e6f742075736520746860008201527f652073616d65206e756c6c696669657220747769636500000000000000000000602082015250565b600061318560368361292d565b915061319082613129565b604082019050919050565b600060208201905081810360008301526131b481613178565b9050919050565b7f4e487b7100000000000000000000000000000000000000000000000000000000600052603260045260246000fd5b600060029050919050565b600081905092915050565b6000819050919050565b6000602082019050919050565b613220816131ea565b61322a81846131f5565b925061323582613200565b8060005b8381101561326657815161324d87826122a5565b96506132588361320a565b925050600181019050613239565b505050505050565b600060029050919050565b600081905092915050565b6000819050919050565b600081905092915050565b6132a2816131ea565b6132ac818461328e565b92506132b782613200565b8060005b838110156132e85781516132cf87826122a5565b96506132da8361320a565b9250506001810190506132bb565b505050505050565b60006132fc8383613299565b60408301905092915050565b6000602082019050919050565b61331e8161326e565b6133288184613279565b925061333382613284565b8060005b8381101561336457815161334b87826132f0565b965061335683613308565b925050600181019050613337565b505050505050565b600060049050919050565b600081905092915050565b6000819050919050565b6000602082019050919050565b6133a28161336c565b6133ac8184613377565b92506133b782613382565b8060005b838110156133e85781516133cf87826122a5565b96506133da8361338c565b9250506001810190506133bb565b505050505050565b6000610180820190506134066000830187613217565b6134136040830186613315565b61342060c0830185613217565b61342e610100830184613399565b95945050505050565b7f53656d6170686f726547726f7570733a2067726f757020646f6573206e6f742060008201527f6578697374000000000000000000000000000000000000000000000000000000602082015250565b600061349360258361292d565b915061349e82613437565b604082019050919050565b600060208201905081810360008301526134c281613486565b9050919050565b60006040820190506134de60008301856130a4565b6134eb60208301846130ba565b9392505050565b60006040820190506135076000830185612240565b6135146020830184612240565b9392505050565b6000819050919050565b61353661353182612682565b61351b565b82525050565b60006135488284613525565b6020820191508190509291505056fea26469706673582212209df673c86bdd32510c2c338ea9741cbf464828db0037238e054bf6a6db701e6464736f6c634300080a0033",
  "immutableReferences": {},
  "source": "// SPDX-License-Identifier: MIT\r\npragma solidity ^0.8.4;\r\nimport \"@appliedzkp/semaphore-contracts/base/SemaphoreCore.sol\";\r\nimport \"@appliedzkp/semaphore-contracts/base/SemaphoreGroups.sol\";\r\nimport \"../Interface/IZKPayroll.sol\";\r\nimport {PoseidonT3} from \"@zk-kit/incremental-merkle-tree.sol/contracts/Hashes.sol\";\r\n\r\n\r\n\r\n\r\n\r\ncontract ZKPayroll is IZKPayroll,SemaphoreCore,SemaphoreGroups {\r\n\r\n//  IVerifier public verifiers;\r\n\r\nstruct listOfemployees{\r\n\r\n    uint256[] employeeId;\r\n}\r\n\r\nmapping(uint8 => IVerifier) internal verifiers;\r\n\r\naddress[] listOfEmployer;\r\n\r\nuint256[] leaves;\r\n\r\nmapping(uint256 => employee) idToemployee;\r\n\r\nmapping(address => employer)  public addressToemployer;\r\n\r\nmapping(address => listOfemployees) addressToemployees;\r\n\r\nmapping(address => uint256) addressTofundValue;\r\n\r\nmapping(uint256 => uint256) notesTosalary;\r\n\r\nuint256 public employerCount;\r\nuint256 public employeesCount;\r\n\r\n\r\n\r\naddress admin;\r\n\r\nconstructor(address _verifiersAddress) {\r\n\r\n   admin = msg.sender;\r\n   verifiers[20] = IVerifier(_verifiersAddress);\r\n\r\n  }\r\n\r\nmodifier onlyAdmin(address _sender) {\r\n    require(admin == _sender,\"Sender is not Admin.\");\r\n    _;\r\n}\r\n\r\nmodifier onlyEmployer(address _sender) {\r\n    require(addressToemployer[_sender].state == employerState.active, \"Employer is not active\");\r\n    _;\r\n}\r\n\r\n//for testing any one can register employer\r\n//On mainnet only Admin can register employer\r\nfunction createEmployer(address _employerAddress) public override {\r\n\r\n    employerCount += 1 ;\r\n\r\n    _createGroup(employerCount, 20, 0);\r\n\r\n    employer memory _employer;\r\n\r\n    _employer.employerId = employerCount;\r\n\r\n    _employer.state = employerState.active;\r\n\r\n    _employer.commitmentCheck = false;\r\n\r\n    addressToemployer[_employerAddress] = _employer;\r\n\r\n    listOfEmployer.push(_employerAddress);\r\n\r\n    emit employerCreated(_employerAddress);\r\n}\r\n\r\nfunction addEmployerCommitment(uint256 _commitment) public override onlyEmployer(msg.sender){\r\n\r\n    require(addressToemployer[msg.sender].commitmentCheck == false,\"Already updated commitment\");\r\n\r\n    addressToemployer[msg.sender].employerCommitment = _commitment;\r\n\r\n    addressToemployer[msg.sender].commitmentCheck = true;\r\n\r\n}\r\n\r\nfunction addEmployee(string memory _employeeName) public override onlyEmployer(msg.sender)  {\r\n\r\n    require(keccak256(abi.encodePacked(_employeeName)) != keccak256(abi.encodePacked(\"\")),\"Please Enter employeeName\");\r\n\r\n    employee memory _addemployee;\r\n\r\n    employeesCount += 1;\r\n\r\n    _addemployee.employeeId = employeesCount;\r\n\r\n    _addemployee.employeeName = _employeeName;\r\n\r\n    _addemployee.state = employeeState.active;\r\n\r\n    _addemployee.employerId = addressToemployer[msg.sender].employerId;\r\n\r\n    _addemployee.commitmentCheck = false;\r\n\r\n    addressToemployees[msg.sender].employeeId.push(employeesCount);\r\n\r\n    idToemployee[employeesCount] = _addemployee;\r\n\r\n    emit employeeCreated(_employeeName,employeesCount);\r\n\r\n}\r\n\r\nfunction addEmployeeCommitment(uint256 _commitment,uint256 _id) public override {\r\n\r\n    require(idToemployee[_id].commitmentCheck == false,\"Already updated commitment\");\r\n\r\n    idToemployee[_id].employeeCommitment = _commitment;\r\n\r\n    idToemployee[_id].commitmentCheck = true;\r\n}\r\n\r\nfunction getEmployeeIdList() public view override onlyEmployer(msg.sender) returns(uint256[] memory _employeeIdList) {\r\n    return(addressToemployees[msg.sender].employeeId);\r\n}\r\n\r\nfunction getEmployerList() public view override onlyAdmin(msg.sender) returns (address[] memory _employerList) {\r\n    return(listOfEmployer);\r\n}\r\n\r\nfunction getEmployeeDetails(uint256 _id) public view override onlyEmployer(msg.sender) returns(string memory _employeeName, employeeState _state,uint256 _employerId,uint256 _employeeCommitment) {\r\n    employee memory _employeeDetails;\r\n    _employeeDetails = idToemployee[_id];\r\n\r\n    return(_employeeDetails.employeeName,_employeeDetails.state,_employeeDetails.employerId,_employeeDetails.employeeCommitment);\r\n}\r\n\r\nfunction getEmployeeEmployerId(uint256 _id) public view override returns(uint256 _employerId){\r\n    employee memory _employeeDetails;\r\n    _employeeDetails = idToemployee[_id];\r\n\r\n    return(_employeeDetails.employerId);\r\n}\r\n\r\nfunction getLeaves() public view override returns(uint256[] memory _leaves){\r\n    return(leaves);\r\n}\r\n\r\nfunction addfundToContract() public payable override onlyEmployer(msg.sender) {\r\n    addressTofundValue[msg.sender] += msg.value;\r\n}\r\n\r\nfunction getAvailableFund() public view override onlyEmployer(msg.sender) returns(uint256 _fundValue) {\r\n    return(addressTofundValue[msg.sender]);\r\n}\r\n\r\nfunction addNotes(uint256 _employeeId,uint256 _salary, uint256 _receivedCommitment,uint256 _identityCommitment) public override onlyEmployer(msg.sender){\r\n    employer memory _employer;\r\n    employee memory _employee;\r\n    _employer = addressToemployer[msg.sender];\r\n    _employee = idToemployee[_employeeId];\r\n    uint256 _employerId = _employer.employerId;\r\n\r\n    uint256 _fund = addressTofundValue[msg.sender];\r\n    \r\n    require(_employer.employerCommitment == _receivedCommitment,\"Employer commitment is not valid.\");\r\n\r\n    require(_fund >= _salary,\"Require fund is not available, Please add fund.\");\r\n\r\n    _addMember(_employerId, _identityCommitment);\r\n \r\n    notesTosalary[_identityCommitment] = _salary;\r\n\r\n    addressTofundValue[msg.sender] = _fund - _salary;\r\n\r\n    leaves.push(_identityCommitment);\r\n\r\n  }\r\n\r\n  function addToleaves(uint256 _a) public onlyEmployer(msg.sender) {\r\n      uint256 _employerId = addressToemployer[msg.sender].employerId;\r\n      _addMember(_employerId, _a);\r\n  }\r\n\r\n\r\n  function withdrawNotes(uint256 _withdrawalNotes,address payable _withdrawalAddress,bytes32 withdraw,uint256 nullifierHash,uint256 employerId,uint256[8] calldata proof) public override  {\r\n\r\n    \r\n    uint256 root = getRoot(employerId);\r\n    IVerifier verifier = verifiers[20];\r\n\r\n    _verifyProof(withdraw, root, nullifierHash, employerId, proof, verifier);\r\n\r\n    uint256 _salary = notesTosalary[_withdrawalNotes];\r\n\r\n    require(_withdrawalAddress.send(_salary),\"Account transfer fail.\");\r\n\r\n    // Prevent double-voting (nullifierHash = hash(pollId + identityNullifier)).\r\n    _saveNullifierHash(nullifierHash);\r\n\r\n  }\r\n\r\n}",
  "sourcePath": "F:\\Blockchain\\Harmony\\ZKPayroll\\backend\\contracts\\ZKPayroll.sol",
  "compiler": {
    "name": "solc",
    "version": "0.8.10+commit.fc410830.Emscripten.clang"
  },
  "schemaVersion": "3.4.3",
  "updatedAt": "2022-04-25T21:29:30.877Z",
  "networkType": "ethereum",
  "devdoc": {
    "kind": "dev",
    "methods": {
      "getDepth(uint256)": {
        "details": "See {ISemaphoreGroups-getDepth}."
      },
      "getNumberOfLeaves(uint256)": {
        "details": "See {ISemaphoreGroups-getNumberOfLeaves}."
      },
      "getRoot(uint256)": {
        "details": "See {ISemaphoreGroups-getRoot}."
      }
    },
    "version": 1
  },
  "userdoc": {
    "events": {
      "NullifierHashAdded(uint256)": {
        "notice": "Emitted when a proof is verified correctly and a new nullifier hash is added."
      }
    },
    "kind": "user",
    "methods": {},
    "version": 1
  }
}