{
  "contractName": "PoseidonT6",
  "abi": [
    {
      "inputs": [
        {
          "internalType": "uint256[5]",
          "name": "",
          "type": "uint256[5]"
        }
      ],
      "name": "poseidon",
      "outputs": [
        {
          "internalType": "uint256",
          "name": "",
          "type": "uint256"
        }
      ],
      "stateMutability": "pure",
      "type": "function"
    }
  ],
  "bytecode": "0x61028a610053600b82828239805160001a607314610046577f4e487b7100000000000000000000000000000000000000000000000000000000600052600060045260246000fd5b30600052607381538281f3fe73000000000000000000000000000000000000000030146080604052600436106100355760003560e01c80634937a2581461003a575b600080fd5b610054600480360381019061004f91906101fd565b61006a565b6040516100619190610239565b60405180910390f35b6000919050565b6000604051905090565b600080fd5b600080fd5b6000601f19601f8301169050919050565b7f4e487b7100000000000000000000000000000000000000000000000000000000600052604160045260246000fd5b6100ce82610085565b810181811067ffffffffffffffff821117156100ed576100ec610096565b5b80604052505050565b6000610100610071565b905061010c82826100c5565b919050565b600067ffffffffffffffff82111561012c5761012b610096565b5b602082029050919050565b600080fd5b6000819050919050565b61014f8161013c565b811461015a57600080fd5b50565b60008135905061016c81610146565b92915050565b600061018561018084610111565b6100f6565b9050806020840283018581111561019f5761019e610137565b5b835b818110156101c857806101b4888261015d565b8452602084019350506020810190506101a1565b5050509392505050565b600082601f8301126101e7576101e6610080565b5b60056101f4848285610172565b91505092915050565b600060a082840312156102135761021261007b565b5b6000610221848285016101d2565b91505092915050565b6102338161013c565b82525050565b600060208201905061024e600083018461022a565b9291505056fea2646970667358221220a95e7f1cf54d19cc5c72007f0b1578fca9e8b8b0ae7747a841b43e3185517d1a64736f6c634300080a0033",
  "immutableReferences": {},
  "source": "//SPDX-License-Identifier: MIT\npragma solidity ^0.8.4;\n\nlibrary PoseidonT3 {\n  function poseidon(uint256[2] memory) public pure returns (uint256) {}\n}\n\nlibrary PoseidonT6 {\n  function poseidon(uint256[5] memory) public pure returns (uint256) {}\n}\n",
  "sourcePath": "@zk-kit\\incremental-merkle-tree.sol\\contracts\\Hashes.sol",
  "compiler": {
    "name": "solc",
    "version": "0.8.10+commit.fc410830.Emscripten.clang"
  },
  "schemaVersion": "3.4.3",
  "updatedAt": "2022-04-25T20:16:59.049Z",
  "devdoc": {
    "kind": "dev",
    "methods": {},
    "version": 1
  },
  "userdoc": {
    "kind": "user",
    "methods": {},
    "version": 1
  }
}