{
  "contractName": "ZKPayroll",
  "abi": [
    {
      "inputs": [
        {
          "internalType": "address",
          "name": "_verifiersAddress",
          "type": "address"
        }
      ],
      "stateMutability": "nonpayable",
      "type": "constructor"
    },
    {
      "anonymous": false,
      "inputs": [
        {
          "indexed": true,
          "internalType": "uint256",
          "name": "groupId",
          "type": "uint256"
        },
        {
          "indexed": false,
          "internalType": "uint8",
          "name": "depth",
          "type": "uint8"
        },
        {
          "indexed": false,
          "internalType": "uint256",
          "name": "zeroValue",
          "type": "uint256"
        }
      ],
      "name": "GroupCreated",
      "type": "event"
    },
    {
      "anonymous": false,
      "inputs": [
        {
          "indexed": true,
          "internalType": "uint256",
          "name": "groupId",
          "type": "uint256"
        },
        {
          "indexed": false,
          "internalType": "uint256",
          "name": "identityCommitment",
          "type": "uint256"
        },
        {
          "indexed": false,
          "internalType": "uint256",
          "name": "root",
          "type": "uint256"
        }
      ],
      "name": "MemberAdded",
      "type": "event"
    },
    {
      "anonymous": false,
      "inputs": [
        {
          "indexed": true,
          "internalType": "uint256",
          "name": "groupId",
          "type": "uint256"
        },
        {
          "indexed": false,
          "internalType": "uint256",
          "name": "identityCommitment",
          "type": "uint256"
        },
        {
          "indexed": false,
          "internalType": "uint256",
          "name": "root",
          "type": "uint256"
        }
      ],
      "name": "MemberRemoved",
      "type": "event"
    },
    {
      "anonymous": false,
      "inputs": [
        {
          "indexed": false,
          "internalType": "uint256",
          "name": "nullifierHash",
          "type": "uint256"
        }
      ],
      "name": "NullifierHashAdded",
      "type": "event"
    },
    {
      "anonymous": false,
      "inputs": [
        {
          "indexed": false,
          "internalType": "string",
          "name": "_employeeName",
          "type": "string"
        },
        {
          "indexed": false,
          "internalType": "uint256",
          "name": "_employeeId",
          "type": "uint256"
        }
      ],
      "name": "employeeCreated",
      "type": "event"
    },
    {
      "anonymous": false,
      "inputs": [
        {
          "indexed": false,
          "internalType": "address",
          "name": "_employerAddress",
          "type": "address"
        }
      ],
      "name": "employerCreated",
      "type": "event"
    },
    {
      "anonymous": false,
      "inputs": [
        {
          "indexed": false,
          "internalType": "uint256",
          "name": "_note",
          "type": "uint256"
        }
      ],
      "name": "noteCreated",
      "type": "event"
    },
    {
      "inputs": [
        {
          "internalType": "address",
          "name": "",
          "type": "address"
        }
      ],
      "name": "addressToemployer",
      "outputs": [
        {
          "internalType": "uint256",
          "name": "employerCommitment",
          "type": "uint256"
        },
        {
          "internalType": "uint256",
          "name": "employerId",
          "type": "uint256"
        },
        {
          "internalType": "enum IZKPayroll.employerState",
          "name": "state",
          "type": "uint8"
        },
        {
          "internalType": "bool",
          "name": "commitmentCheck",
          "type": "bool"
        }
      ],
      "stateMutability": "view",
      "type": "function",
      "constant": true
    },
    {
      "inputs": [],
      "name": "employeesCount",
      "outputs": [
        {
          "internalType": "uint256",
          "name": "",
          "type": "uint256"
        }
      ],
      "stateMutability": "view",
      "type": "function",
      "constant": true
    },
    {
      "inputs": [],
      "name": "employerCount",
      "outputs": [
        {
          "internalType": "uint256",
          "name": "",
          "type": "uint256"
        }
      ],
      "stateMutability": "view",
      "type": "function",
      "constant": true
    },
    {
      "inputs": [
        {
          "internalType": "uint256",
          "name": "groupId",
          "type": "uint256"
        }
      ],
      "name": "getDepth",
      "outputs": [
        {
          "internalType": "uint8",
          "name": "",
          "type": "uint8"
        }
      ],
      "stateMutability": "view",
      "type": "function",
      "constant": true
    },
    {
      "inputs": [
        {
          "internalType": "uint256",
          "name": "groupId",
          "type": "uint256"
        }
      ],
      "name": "getNumberOfLeaves",
      "outputs": [
        {
          "internalType": "uint256",
          "name": "",
          "type": "uint256"
        }
      ],
      "stateMutability": "view",
      "type": "function",
      "constant": true
    },
    {
      "inputs": [
        {
          "internalType": "uint256",
          "name": "groupId",
          "type": "uint256"
        }
      ],
      "name": "getRoot",
      "outputs": [
        {
          "internalType": "uint256",
          "name": "",
          "type": "uint256"
        }
      ],
      "stateMutability": "view",
      "type": "function",
      "constant": true
    },
    {
      "inputs": [
        {
          "internalType": "address",
          "name": "_employerAddress",
          "type": "address"
        }
      ],
      "name": "createEmployer",
      "outputs": [],
      "stateMutability": "nonpayable",
      "type": "function"
    },
    {
      "inputs": [
        {
          "internalType": "uint256",
          "name": "_commitment",
          "type": "uint256"
        }
      ],
      "name": "addEmployerCommitment",
      "outputs": [],
      "stateMutability": "nonpayable",
      "type": "function"
    },
    {
      "inputs": [
        {
          "internalType": "string",
          "name": "_employeeName",
          "type": "string"
        }
      ],
      "name": "addEmployee",
      "outputs": [],
      "stateMutability": "nonpayable",
      "type": "function"
    },
    {
      "inputs": [
        {
          "internalType": "uint256",
          "name": "_commitment",
          "type": "uint256"
        },
        {
          "internalType": "uint256",
          "name": "_id",
          "type": "uint256"
        }
      ],
      "name": "addEmployeeCommitment",
      "outputs": [],
      "stateMutability": "nonpayable",
      "type": "function"
    },
    {
      "inputs": [],
      "name": "getEmployeeIdList",
      "outputs": [
        {
          "internalType": "uint256[]",
          "name": "_employeeIdList",
          "type": "uint256[]"
        }
      ],
      "stateMutability": "view",
      "type": "function",
      "constant": true
    },
    {
      "inputs": [],
      "name": "getEmployerList",
      "outputs": [
        {
          "internalType": "address[]",
          "name": "_employerList",
          "type": "address[]"
        }
      ],
      "stateMutability": "view",
      "type": "function",
      "constant": true
    },
    {
      "inputs": [
        {
          "internalType": "uint256",
          "name": "_id",
          "type": "uint256"
        }
      ],
      "name": "getEmployeeDetails",
      "outputs": [
        {
          "internalType": "string",
          "name": "_employeeName",
          "type": "string"
        },
        {
          "internalType": "enum IZKPayroll.employeeState",
          "name": "_state",
          "type": "uint8"
        },
        {
          "internalType": "uint256",
          "name": "_employerId",
          "type": "uint256"
        },
        {
          "internalType": "uint256",
          "name": "_employeeCommitment",
          "type": "uint256"
        }
      ],
      "stateMutability": "view",
      "type": "function",
      "constant": true
    },
    {
      "inputs": [
        {
          "internalType": "uint256",
          "name": "_id",
          "type": "uint256"
        }
      ],
      "name": "getEmployeeEmployerId",
      "outputs": [
        {
          "internalType": "uint256",
          "name": "_employerId",
          "type": "uint256"
        }
      ],
      "stateMutability": "view",
      "type": "function",
      "constant": true
    },
    {
      "inputs": [],
      "name": "getLeaves",
      "outputs": [
        {
          "internalType": "uint256[]",
          "name": "_leaves",
          "type": "uint256[]"
        }
      ],
      "stateMutability": "view",
      "type": "function",
      "constant": true
    },
    {
      "inputs": [],
      "name": "addfundToContract",
      "outputs": [],
      "stateMutability": "payable",
      "type": "function",
      "payable": true
    },
    {
      "inputs": [],
      "name": "getAvailableFund",
      "outputs": [
        {
          "internalType": "uint256",
          "name": "_fundValue",
          "type": "uint256"
        }
      ],
      "stateMutability": "view",
      "type": "function",
      "constant": true
    },
    {
      "inputs": [
        {
          "internalType": "uint256",
          "name": "_employeeId",
          "type": "uint256"
        },
        {
          "internalType": "uint256",
          "name": "_salary",
          "type": "uint256"
        },
        {
          "internalType": "uint256",
          "name": "_receivedCommitment",
          "type": "uint256"
        },
        {
          "internalType": "uint256",
          "name": "_identityCommitment",
          "type": "uint256"
        }
      ],
      "name": "addNotes",
      "outputs": [],
      "stateMutability": "nonpayable",
      "type": "function"
    },
    {
      "inputs": [
        {
          "internalType": "uint256",
          "name": "_a",
          "type": "uint256"
        }
      ],
      "name": "addToleaves",
      "outputs": [],
      "stateMutability": "nonpayable",
      "type": "function"
    },
    {
      "inputs": [
        {
          "internalType": "uint256",
          "name": "_withdrawalNotes",
          "type": "uint256"
        },
        {
          "internalType": "address payable",
          "name": "_withdrawalAddress",
          "type": "address"
        },
        {
          "internalType": "bytes32",
          "name": "withdraw",
          "type": "bytes32"
        },
        {
          "internalType": "uint256",
          "name": "nullifierHash",
          "type": "uint256"
        },
        {
          "internalType": "uint256",
          "name": "employerId",
          "type": "uint256"
        },
        {
          "internalType": "uint256[8]",
          "name": "proof",
          "type": "uint256[8]"
        }
      ],
      "name": "withdrawNotes",
      "outputs": [],
      "stateMutability": "nonpayable",
      "type": "function"
    }
  ],
  "bytecode": "0x60806040523480156200001157600080fd5b50604051620037a0380380620037a083398181016040528101906200003791906200013f565b33600c60006101000a81548173ffffffffffffffffffffffffffffffffffffffff021916908373ffffffffffffffffffffffffffffffffffffffff1602179055508060026000601460ff16815260200190815260200160002060006101000a81548173ffffffffffffffffffffffffffffffffffffffff021916908373ffffffffffffffffffffffffffffffffffffffff1602179055505062000171565b600080fd5b600073ffffffffffffffffffffffffffffffffffffffff82169050919050565b60006200010782620000da565b9050919050565b6200011981620000fa565b81146200012557600080fd5b50565b60008151905062000139816200010e565b92915050565b600060208284031215620001585762000157620000d5565b5b6000620001688482850162000128565b91505092915050565b61361f80620001816000396000f3fe60806040526004361061011f5760003560e01c806375e618c9116100a05780639b24b3b0116100645780639b24b3b0146103b3578063a98b371b146103f0578063ad2b303714610430578063b9c78c2b1461045b578063bdd4a068146104985761011f565b806375e618c9146102b957806379ceb311146102f65780638b3aa6a41461031f5780638e543a7c1461034857806390731223146103735761011f565b80632d2d03a6116100e75780632d2d03a6146101ea5780633d2ba1d9146102135780634b62c4661461023c5780635089f38d146102675780636693c928146102905761011f565b80630bbcf45b1461012457806319b05bc6146101615780631d4bc9481461018c5780632308480b146101b75780632369ac45146101e0575b600080fd5b34801561013057600080fd5b5061014b600480360381019061014691906122a5565b6104c3565b60405161015891906122e1565b60405180910390f35b34801561016d57600080fd5b50610176610600565b60405161018391906123ba565b60405180910390f35b34801561019857600080fd5b506101a161074f565b6040516101ae91906124cc565b60405180910390f35b3480156101c357600080fd5b506101de60048036038101906101d9919061251a565b61086f565b005b6101e8610ac5565b005b3480156101f657600080fd5b50610211600480360381019061020c919061268d565b610bd4565b005b34801561021f57600080fd5b5061023a60048036038101906102359190612771565b610f2b565b005b34801561024857600080fd5b50610251611022565b60405161025e91906122e1565b60405180910390f35b34801561027357600080fd5b5061028e600480360381019061028991906127ff565b611028565b005b34801561029c57600080fd5b506102b760048036038101906102b291906122a5565b611445565b005b3480156102c557600080fd5b506102e060048036038101906102db91906122a5565b611551565b6040516102ed9190612882565b60405180910390f35b34801561030257600080fd5b5061031d600480360381019061031891906122a5565b61157e565b005b34801561032b57600080fd5b506103466004803603810190610341919061289d565b611770565b005b34801561035457600080fd5b5061035d611828565b60405161036a91906122e1565b60405180910390f35b34801561037f57600080fd5b5061039a6004803603810190610395919061251a565b611926565b6040516103aa949392919061296f565b60405180910390f35b3480156103bf57600080fd5b506103da60048036038101906103d591906122a5565b611970565b6040516103e791906122e1565b60405180910390f35b3480156103fc57600080fd5b50610417600480360381019061041291906122a5565b611990565b6040516104279493929190612a84565b60405180910390f35b34801561043c57600080fd5b50610445611ba0565b60405161045291906123ba565b60405180910390f35b34801561046757600080fd5b50610482600480360381019061047d91906122a5565b611bf8565b60405161048f91906122e1565b60405180910390f35b3480156104a457600080fd5b506104ad611c18565b6040516104ba91906122e1565b60405180910390f35b60006104cd612132565b600560008481526020019081526020016000206040518060c001604052908160008201548152602001600182015481526020016002820154815260200160038201805461051990612aff565b80601f016020809104026020016040519081016040528092919081815260200182805461054590612aff565b80156105925780601f1061056757610100808354040283529160200191610592565b820191906000526020600020905b81548152906001019060200180831161057557829003601f168201915b505050505081526020016004820160009054906101000a900460ff1660018111156105c0576105bf6128dd565b5b60018111156105d2576105d16128dd565b5b81526020016004820160019054906101000a900460ff16151515158152505090508060400151915050919050565b606033600180811115610616576106156128dd565b5b600660008373ffffffffffffffffffffffffffffffffffffffff1673ffffffffffffffffffffffffffffffffffffffff16815260200190815260200160002060020160009054906101000a900460ff166001811115610678576106776128dd565b5b146106b8576040517f08c379a00000000000000000000000000000000000000000000000000000000081526004016106af90612b7d565b60405180910390fd5b600760003373ffffffffffffffffffffffffffffffffffffffff1673ffffffffffffffffffffffffffffffffffffffff16815260200190815260200160002060000180548060200260200160405190810160405280929190818152602001828054801561074457602002820191906000526020600020905b815481526020019060010190808311610730575b505050505091505090565b6060338073ffffffffffffffffffffffffffffffffffffffff16600c60009054906101000a900473ffffffffffffffffffffffffffffffffffffffff1673ffffffffffffffffffffffffffffffffffffffff16146107e2576040517f08c379a00000000000000000000000000000000000000000000000000000000081526004016107d990612be9565b60405180910390fd5b600380548060200260200160405190810160405280929190818152602001828054801561086457602002820191906000526020600020905b8160009054906101000a900473ffffffffffffffffffffffffffffffffffffffff1673ffffffffffffffffffffffffffffffffffffffff168152602001906001019080831161081a575b505050505091505090565b338073ffffffffffffffffffffffffffffffffffffffff16600c60009054906101000a900473ffffffffffffffffffffffffffffffffffffffff1673ffffffffffffffffffffffffffffffffffffffff1614610900576040517f08c379a00000000000000000000000000000000000000000000000000000000081526004016108f790612be9565b60405180910390fd5b6001600a60008282546109139190612c38565b92505081905550610929600a5460146000611c1e565b61093161217c565b600a54816020018181525050600181604001906001811115610956576109556128dd565b5b9081600181111561096a576109696128dd565b5b81525050600081606001901515908115158152505080600660008573ffffffffffffffffffffffffffffffffffffffff1673ffffffffffffffffffffffffffffffffffffffff168152602001908152602001600020600082015181600001556020820151816001015560408201518160020160006101000a81548160ff021916908360018111156109fe576109fd6128dd565b5b021790555060608201518160020160016101000a81548160ff0219169083151502179055509050506003839080600181540180825580915050600190039060005260206000200160009091909190916101000a81548173ffffffffffffffffffffffffffffffffffffffff021916908373ffffffffffffffffffffffffffffffffffffffff1602179055507fbc10ec19de4ce59ac4b5972414228c992109c99041af4a98ee298aa3bfffafa383604051610ab89190612c9d565b60405180910390a1505050565b33600180811115610ad957610ad86128dd565b5b600660008373ffffffffffffffffffffffffffffffffffffffff1673ffffffffffffffffffffffffffffffffffffffff16815260200190815260200160002060020160009054906101000a900460ff166001811115610b3b57610b3a6128dd565b5b14610b7b576040517f08c379a0000000000000000000000000000000000000000000000000000000008152600401610b7290612b7d565b60405180910390fd5b34600860003373ffffffffffffffffffffffffffffffffffffffff1673ffffffffffffffffffffffffffffffffffffffff1681526020019081526020016000206000828254610bca9190612c38565b9250508190555050565b33600180811115610be857610be76128dd565b5b600660008373ffffffffffffffffffffffffffffffffffffffff1673ffffffffffffffffffffffffffffffffffffffff16815260200190815260200160002060020160009054906101000a900460ff166001811115610c4a57610c496128dd565b5b14610c8a576040517f08c379a0000000000000000000000000000000000000000000000000000000008152600401610c8190612b7d565b60405180910390fd5b604051602001610c9990612ce9565b6040516020818303038152906040528051906020012082604051602001610cc09190612d2f565b604051602081830303815290604052805190602001201415610d17576040517f08c379a0000000000000000000000000000000000000000000000000000000008152600401610d0e90612d92565b60405180910390fd5b610d1f612132565b6001600b6000828254610d329190612c38565b92505081905550600b54816020018181525050828160600181905250600181608001906001811115610d6757610d666128dd565b5b90816001811115610d7b57610d7a6128dd565b5b81525050600660003373ffffffffffffffffffffffffffffffffffffffff1673ffffffffffffffffffffffffffffffffffffffff1681526020019081526020016000206001015481604001818152505060008160a0019015159081151581525050600760003373ffffffffffffffffffffffffffffffffffffffff1673ffffffffffffffffffffffffffffffffffffffff168152602001908152602001600020600001600b5490806001815401808255809150506001900390600052602060002001600090919091909150558060056000600b5481526020019081526020016000206000820151816000015560208201518160010155604082015181600201556060820151816003019080519060200190610e979291906121b8565b5060808201518160040160006101000a81548160ff02191690836001811115610ec357610ec26128dd565b5b021790555060a08201518160040160016101000a81548160ff0219169083151502179055509050507f29f60a863dde0da64901033655ff093ef68ef23d333bf462fb8552423ab759bd83600b54604051610f1e929190612db2565b60405180910390a1505050565b6000610f3683611970565b9050600060026000601460ff16815260200190815260200160002060009054906101000a900473ffffffffffffffffffffffffffffffffffffffff169050610f82868387878786611d8c565b6000600960008a81526020019081526020016000205490508773ffffffffffffffffffffffffffffffffffffffff166108fc829081150290604051600060405180830381858888f1935050505061100e576040517f08c379a000000000000000000000000000000000000000000000000000000000815260040161100590612e2e565b60405180910390fd5b61101786611fb5565b505050505050505050565b600a5481565b3360018081111561103c5761103b6128dd565b5b600660008373ffffffffffffffffffffffffffffffffffffffff1673ffffffffffffffffffffffffffffffffffffffff16815260200190815260200160002060020160009054906101000a900460ff16600181111561109e5761109d6128dd565b5b146110de576040517f08c379a00000000000000000000000000000000000000000000000000000000081526004016110d590612b7d565b60405180910390fd5b6110e661217c565b6110ee612132565b600660003373ffffffffffffffffffffffffffffffffffffffff1673ffffffffffffffffffffffffffffffffffffffff16815260200190815260200160002060405180608001604052908160008201548152602001600182015481526020016002820160009054906101000a900460ff166001811115611171576111706128dd565b5b6001811115611183576111826128dd565b5b81526020016002820160019054906101000a900460ff1615151515815250509150600560008881526020019081526020016000206040518060c00160405290816000820154815260200160018201548152602001600282015481526020016003820180546111f090612aff565b80601f016020809104026020016040519081016040528092919081815260200182805461121c90612aff565b80156112695780601f1061123e57610100808354040283529160200191611269565b820191906000526020600020905b81548152906001019060200180831161124c57829003601f168201915b505050505081526020016004820160009054906101000a900460ff166001811115611297576112966128dd565b5b60018111156112a9576112a86128dd565b5b81526020016004820160019054906101000a900460ff16151515158152505090506000826020015190506000600860003373ffffffffffffffffffffffffffffffffffffffff1673ffffffffffffffffffffffffffffffffffffffff1681526020019081526020016000205490508684600001511461135d576040517f08c379a000000000000000000000000000000000000000000000000000000000815260040161135490612ec0565b60405180910390fd5b878110156113a0576040517f08c379a000000000000000000000000000000000000000000000000000000000815260040161139790612f52565b60405180910390fd5b6113aa8287611fe3565b87600960008881526020019081526020016000208190555087816113ce9190612f72565b600860003373ffffffffffffffffffffffffffffffffffffffff1673ffffffffffffffffffffffffffffffffffffffff168152602001908152602001600020819055506004869080600181540180825580915050600190039060005260206000200160009091909190915055505050505050505050565b33600180811115611459576114586128dd565b5b600660008373ffffffffffffffffffffffffffffffffffffffff1673ffffffffffffffffffffffffffffffffffffffff16815260200190815260200160002060020160009054906101000a900460ff1660018111156114bb576114ba6128dd565b5b146114fb576040517f08c379a00000000000000000000000000000000000000000000000000000000081526004016114f290612b7d565b60405180910390fd5b6000600660003373ffffffffffffffffffffffffffffffffffffffff1673ffffffffffffffffffffffffffffffffffffffff16815260200190815260200160002060010154905061154c8184611fe3565b505050565b60006001600083815260200190815260200160002060000160009054906101000a900460ff169050919050565b33600180811115611592576115916128dd565b5b600660008373ffffffffffffffffffffffffffffffffffffffff1673ffffffffffffffffffffffffffffffffffffffff16815260200190815260200160002060020160009054906101000a900460ff1660018111156115f4576115f36128dd565b5b14611634576040517f08c379a000000000000000000000000000000000000000000000000000000000815260040161162b90612b7d565b60405180910390fd5b60001515600660003373ffffffffffffffffffffffffffffffffffffffff1673ffffffffffffffffffffffffffffffffffffffff16815260200190815260200160002060020160019054906101000a900460ff161515146116ca576040517f08c379a00000000000000000000000000000000000000000000000000000000081526004016116c190612ff2565b60405180910390fd5b81600660003373ffffffffffffffffffffffffffffffffffffffff1673ffffffffffffffffffffffffffffffffffffffff168152602001908152602001600020600001819055506001600660003373ffffffffffffffffffffffffffffffffffffffff1673ffffffffffffffffffffffffffffffffffffffff16815260200190815260200160002060020160016101000a81548160ff0219169083151502179055505050565b600015156005600083815260200190815260200160002060040160019054906101000a900460ff161515146117da576040517f08c379a00000000000000000000000000000000000000000000000000000000081526004016117d190612ff2565b60405180910390fd5b81600560008381526020019081526020016000206000018190555060016005600083815260200190815260200160002060040160016101000a81548160ff0219169083151502179055505050565b60003360018081111561183e5761183d6128dd565b5b600660008373ffffffffffffffffffffffffffffffffffffffff1673ffffffffffffffffffffffffffffffffffffffff16815260200190815260200160002060020160009054906101000a900460ff1660018111156118a05761189f6128dd565b5b146118e0576040517f08c379a00000000000000000000000000000000000000000000000000000000081526004016118d790612b7d565b60405180910390fd5b600860003373ffffffffffffffffffffffffffffffffffffffff1673ffffffffffffffffffffffffffffffffffffffff1681526020019081526020016000205491505090565b60066020528060005260406000206000915090508060000154908060010154908060020160009054906101000a900460ff16908060020160019054906101000a900460ff16905084565b600060016000838152602001908152602001600020600101549050919050565b60606000806000336001808111156119ab576119aa6128dd565b5b600660008373ffffffffffffffffffffffffffffffffffffffff1673ffffffffffffffffffffffffffffffffffffffff16815260200190815260200160002060020160009054906101000a900460ff166001811115611a0d57611a0c6128dd565b5b14611a4d576040517f08c379a0000000000000000000000000000000000000000000000000000000008152600401611a4490612b7d565b60405180910390fd5b611a55612132565b600560008881526020019081526020016000206040518060c0016040529081600082015481526020016001820154815260200160028201548152602001600382018054611aa190612aff565b80601f0160208091040260200160405190810160405280929190818152602001828054611acd90612aff565b8015611b1a5780601f10611aef57610100808354040283529160200191611b1a565b820191906000526020600020905b815481529060010190602001808311611afd57829003601f168201915b505050505081526020016004820160009054906101000a900460ff166001811115611b4857611b476128dd565b5b6001811115611b5a57611b596128dd565b5b81526020016004820160019054906101000a900460ff16151515158152505090508060600151816080015182604001518360000151955095509550955050509193509193565b60606004805480602002602001604051908101604052809291908181526020018280548015611bee57602002820191906000526020600020905b815481526020019060010190808311611bda575b5050505050905090565b600060016000838152602001908152602001600020600201549050919050565b600b5481565b7f30644e72e131a029b85045b68181585d2833e84879b9709143e1f593f00000018310611c80576040517f08c379a0000000000000000000000000000000000000000000000000000000008152600401611c7790613084565b60405180910390fd5b6000611c8b84611551565b60ff1614611cce576040517f08c379a0000000000000000000000000000000000000000000000000000000008152600401611cc590613116565b60405180910390fd5b6001600084815260200190815260200160002073__IncrementalBinaryTree_________________63b4bdd117909184846040518463ffffffff1660e01b8152600401611d1d9392919061315b565b60006040518083038186803b158015611d3557600080fd5b505af4158015611d49573d6000803e3d6000fd5b50505050827fc3082aa494e9088c2c9f0fb62a0b6bd46e6699acb94cfba35be29b95a93f68c88383604051611d7f929190613192565b60405180910390a2505050565b60008085815260200190815260200160002060009054906101000a900460ff1615611dec576040517f08c379a0000000000000000000000000000000000000000000000000000000008152600401611de39061322d565b60405180910390fd5b6000611df7876120fb565b90508173ffffffffffffffffffffffffffffffffffffffff16635fe8c13b604051806040016040528086600060088110611e3457611e3361324d565b5b6020020135815260200186600160088110611e5257611e5161324d565b5b60200201358152506040518060400160405280604051806040016040528089600260088110611e8457611e8361324d565b5b6020020135815260200189600360088110611ea257611ea161324d565b5b60200201358152508152602001604051806040016040528089600460088110611ece57611ecd61324d565b5b6020020135815260200189600560088110611eec57611eeb61324d565b5b6020020135815250815250604051806040016040528088600660088110611f1657611f1561324d565b5b6020020135815260200188600760088110611f3457611f3361324d565b5b602002013581525060405180608001604052808c81526020018b81526020018781526020018a8152506040518563ffffffff1660e01b8152600401611f7c9493929190613482565b60006040518083038186803b158015611f9457600080fd5b505afa158015611fa8573d6000803e3d6000fd5b5050505050505050505050565b600160008083815260200190815260200160002060006101000a81548160ff02191690831515021790555050565b6000611fee83611551565b60ff161415612032576040517f08c379a00000000000000000000000000000000000000000000000000000000081526004016120299061353b565b60405180910390fd5b6001600083815260200190815260200160002073__IncrementalBinaryTree_________________63168703fa9091836040518363ffffffff1660e01b815260040161207f92919061355b565b60006040518083038186803b15801561209757600080fd5b505af41580156120ab573d6000803e3d6000fd5b5050505060006120ba83611970565b9050827f03fd27265b7dd1f55558bedc22a58fa3b10afb1be776e614bd5a7ba7b949940683836040516120ee929190613584565b60405180910390a2505050565b600060088260405160200161211091906135ce565b6040516020818303038152906040528051906020012060001c901c9050919050565b6040518060c00160405280600081526020016000815260200160008152602001606081526020016000600181111561216d5761216c6128dd565b5b81526020016000151581525090565b60405180608001604052806000815260200160008152602001600060018111156121a9576121a86128dd565b5b81526020016000151581525090565b8280546121c490612aff565b90600052602060002090601f0160209004810192826121e6576000855561222d565b82601f106121ff57805160ff191683800117855561222d565b8280016001018555821561222d579182015b8281111561222c578251825591602001919060010190612211565b5b50905061223a919061223e565b5090565b5b8082111561225757600081600090555060010161223f565b5090565b6000604051905090565b600080fd5b600080fd5b6000819050919050565b6122828161226f565b811461228d57600080fd5b50565b60008135905061229f81612279565b92915050565b6000602082840312156122bb576122ba612265565b5b60006122c984828501612290565b91505092915050565b6122db8161226f565b82525050565b60006020820190506122f660008301846122d2565b92915050565b600081519050919050565b600082825260208201905092915050565b6000819050602082019050919050565b6123318161226f565b82525050565b60006123438383612328565b60208301905092915050565b6000602082019050919050565b6000612367826122fc565b6123718185612307565b935061237c83612318565b8060005b838110156123ad5781516123948882612337565b975061239f8361234f565b925050600181019050612380565b5085935050505092915050565b600060208201905081810360008301526123d4818461235c565b905092915050565b600081519050919050565b600082825260208201905092915050565b6000819050602082019050919050565b600073ffffffffffffffffffffffffffffffffffffffff82169050919050565b600061243382612408565b9050919050565b61244381612428565b82525050565b6000612455838361243a565b60208301905092915050565b6000602082019050919050565b6000612479826123dc565b61248381856123e7565b935061248e836123f8565b8060005b838110156124bf5781516124a68882612449565b97506124b183612461565b925050600181019050612492565b5085935050505092915050565b600060208201905081810360008301526124e6818461246e565b905092915050565b6124f781612428565b811461250257600080fd5b50565b600081359050612514816124ee565b92915050565b6000602082840312156125305761252f612265565b5b600061253e84828501612505565b91505092915050565b600080fd5b600080fd5b6000601f19601f8301169050919050565b7f4e487b7100000000000000000000000000000000000000000000000000000000600052604160045260246000fd5b61259a82612551565b810181811067ffffffffffffffff821117156125b9576125b8612562565b5b80604052505050565b60006125cc61225b565b90506125d88282612591565b919050565b600067ffffffffffffffff8211156125f8576125f7612562565b5b61260182612551565b9050602081019050919050565b82818337600083830152505050565b600061263061262b846125dd565b6125c2565b90508281526020810184848401111561264c5761264b61254c565b5b61265784828561260e565b509392505050565b600082601f83011261267457612673612547565b5b813561268484826020860161261d565b91505092915050565b6000602082840312156126a3576126a2612265565b5b600082013567ffffffffffffffff8111156126c1576126c061226a565b5b6126cd8482850161265f565b91505092915050565b60006126e182612408565b9050919050565b6126f1816126d6565b81146126fc57600080fd5b50565b60008135905061270e816126e8565b92915050565b6000819050919050565b61272781612714565b811461273257600080fd5b50565b6000813590506127448161271e565b92915050565b600080fd5b60008190508260206008028201111561276b5761276a61274a565b5b92915050565b6000806000806000806101a0878903121561278f5761278e612265565b5b600061279d89828a01612290565b96505060206127ae89828a016126ff565b95505060406127bf89828a01612735565b94505060606127d089828a01612290565b93505060806127e189828a01612290565b92505060a06127f289828a0161274f565b9150509295509295509295565b6000806000806080858703121561281957612818612265565b5b600061282787828801612290565b945050602061283887828801612290565b935050604061284987828801612290565b925050606061285a87828801612290565b91505092959194509250565b600060ff82169050919050565b61287c81612866565b82525050565b60006020820190506128976000830184612873565b92915050565b600080604083850312156128b4576128b3612265565b5b60006128c285828601612290565b92505060206128d385828601612290565b9150509250929050565b7f4e487b7100000000000000000000000000000000000000000000000000000000600052602160045260246000fd5b6002811061291d5761291c6128dd565b5b50565b600081905061292e8261290c565b919050565b600061293e82612920565b9050919050565b61294e81612933565b82525050565b60008115159050919050565b61296981612954565b82525050565b600060808201905061298460008301876122d2565b61299160208301866122d2565b61299e6040830185612945565b6129ab6060830184612960565b95945050505050565b600081519050919050565b600082825260208201905092915050565b60005b838110156129ee5780820151818401526020810190506129d3565b838111156129fd576000848401525b50505050565b6000612a0e826129b4565b612a1881856129bf565b9350612a288185602086016129d0565b612a3181612551565b840191505092915050565b60028110612a4d57612a4c6128dd565b5b50565b6000819050612a5e82612a3c565b919050565b6000612a6e82612a50565b9050919050565b612a7e81612a63565b82525050565b60006080820190508181036000830152612a9e8187612a03565b9050612aad6020830186612a75565b612aba60408301856122d2565b612ac760608301846122d2565b95945050505050565b7f4e487b7100000000000000000000000000000000000000000000000000000000600052602260045260246000fd5b60006002820490506001821680612b1757607f821691505b60208210811415612b2b57612b2a612ad0565b5b50919050565b7f456d706c6f796572206973206e6f742061637469766500000000000000000000600082015250565b6000612b676016836129bf565b9150612b7282612b31565b602082019050919050565b60006020820190508181036000830152612b9681612b5a565b9050919050565b7f53656e646572206973206e6f742041646d696e2e000000000000000000000000600082015250565b6000612bd36014836129bf565b9150612bde82612b9d565b602082019050919050565b60006020820190508181036000830152612c0281612bc6565b9050919050565b7f4e487b7100000000000000000000000000000000000000000000000000000000600052601160045260246000fd5b6000612c438261226f565b9150612c4e8361226f565b9250827fffffffffffffffffffffffffffffffffffffffffffffffffffffffffffffffff03821115612c8357612c82612c09565b5b828201905092915050565b612c9781612428565b82525050565b6000602082019050612cb26000830184612c8e565b92915050565b600081905092915050565b50565b6000612cd3600083612cb8565b9150612cde82612cc3565b600082019050919050565b6000612cf482612cc6565b9150819050919050565b6000612d09826129b4565b612d138185612cb8565b9350612d238185602086016129d0565b80840191505092915050565b6000612d3b8284612cfe565b915081905092915050565b7f506c6561736520456e74657220656d706c6f7965654e616d6500000000000000600082015250565b6000612d7c6019836129bf565b9150612d8782612d46565b602082019050919050565b60006020820190508181036000830152612dab81612d6f565b9050919050565b60006040820190508181036000830152612dcc8185612a03565b9050612ddb60208301846122d2565b9392505050565b7f4163636f756e74207472616e73666572206661696c2e00000000000000000000600082015250565b6000612e186016836129bf565b9150612e2382612de2565b602082019050919050565b60006020820190508181036000830152612e4781612e0b565b9050919050565b7f456d706c6f79657220636f6d6d69746d656e74206973206e6f742076616c696460008201527f2e00000000000000000000000000000000000000000000000000000000000000602082015250565b6000612eaa6021836129bf565b9150612eb582612e4e565b604082019050919050565b60006020820190508181036000830152612ed981612e9d565b9050919050565b7f526571756972652066756e64206973206e6f7420617661696c61626c652c205060008201527f6c65617365206164642066756e642e0000000000000000000000000000000000602082015250565b6000612f3c602f836129bf565b9150612f4782612ee0565b604082019050919050565b60006020820190508181036000830152612f6b81612f2f565b9050919050565b6000612f7d8261226f565b9150612f888361226f565b925082821015612f9b57612f9a612c09565b5b828203905092915050565b7f416c7265616479207570646174656420636f6d6d69746d656e74000000000000600082015250565b6000612fdc601a836129bf565b9150612fe782612fa6565b602082019050919050565b6000602082019050818103600083015261300b81612fcf565b9050919050565b7f53656d6170686f726547726f7570733a2067726f7570206964206d757374206260008201527f65203c20534e41524b5f5343414c41525f4649454c4400000000000000000000602082015250565b600061306e6036836129bf565b915061307982613012565b604082019050919050565b6000602082019050818103600083015261309d81613061565b9050919050565b7f53656d6170686f726547726f7570733a2067726f757020616c7265616479206560008201527f7869737473000000000000000000000000000000000000000000000000000000602082015250565b60006131006025836129bf565b915061310b826130a4565b604082019050919050565b6000602082019050818103600083015261312f816130f3565b9050919050565b8082525050565b61314681612866565b82525050565b6131558161226f565b82525050565b60006060820190506131706000830186613136565b61317d602083018561313d565b61318a604083018461314c565b949350505050565b60006040820190506131a76000830185612873565b6131b460208301846122d2565b9392505050565b7f53656d6170686f7265436f72653a20796f752063616e6e6f742075736520746860008201527f652073616d65206e756c6c696669657220747769636500000000000000000000602082015250565b60006132176036836129bf565b9150613222826131bb565b604082019050919050565b600060208201905081810360008301526132468161320a565b9050919050565b7f4e487b7100000000000000000000000000000000000000000000000000000000600052603260045260246000fd5b600060029050919050565b600081905092915050565b6000819050919050565b6000602082019050919050565b6132b28161327c565b6132bc8184613287565b92506132c782613292565b8060005b838110156132f85781516132df8782612337565b96506132ea8361329c565b9250506001810190506132cb565b505050505050565b600060029050919050565b600081905092915050565b6000819050919050565b600081905092915050565b6133348161327c565b61333e8184613320565b925061334982613292565b8060005b8381101561337a5781516133618782612337565b965061336c8361329c565b92505060018101905061334d565b505050505050565b600061338e838361332b565b60408301905092915050565b6000602082019050919050565b6133b081613300565b6133ba818461330b565b92506133c582613316565b8060005b838110156133f65781516133dd8782613382565b96506133e88361339a565b9250506001810190506133c9565b505050505050565b600060049050919050565b600081905092915050565b6000819050919050565b6000602082019050919050565b613434816133fe565b61343e8184613409565b925061344982613414565b8060005b8381101561347a5781516134618782612337565b965061346c8361341e565b92505060018101905061344d565b505050505050565b60006101808201905061349860008301876132a9565b6134a560408301866133a7565b6134b260c08301856132a9565b6134c061010083018461342b565b95945050505050565b7f53656d6170686f726547726f7570733a2067726f757020646f6573206e6f742060008201527f6578697374000000000000000000000000000000000000000000000000000000602082015250565b60006135256025836129bf565b9150613530826134c9565b604082019050919050565b6000602082019050818103600083015261355481613518565b9050919050565b60006040820190506135706000830185613136565b61357d602083018461314c565b9392505050565b600060408201905061359960008301856122d2565b6135a660208301846122d2565b9392505050565b6000819050919050565b6135c86135c382612714565b6135ad565b82525050565b60006135da82846135b7565b6020820191508190509291505056fea2646970667358221220a67478544373713ad08caa00705eef8aac1d819f82693dfcbf03bc832cf805f964736f6c634300080a0033",
  "immutableReferences": {},
  "source": "// SPDX-License-Identifier: MIT\r\npragma solidity ^0.8.4;\r\nimport \"@appliedzkp/semaphore-contracts/base/SemaphoreCore.sol\";\r\nimport \"@appliedzkp/semaphore-contracts/base/SemaphoreGroups.sol\";\r\nimport \"../Interface/IZKPayroll.sol\";\r\nimport {PoseidonT3} from \"@zk-kit/incremental-merkle-tree.sol/contracts/Hashes.sol\";\r\n\r\n\r\n\r\n\r\n\r\ncontract ZKPayroll is IZKPayroll,SemaphoreCore,SemaphoreGroups {\r\n\r\n//  IVerifier public verifiers;\r\n\r\nstruct listOfemployees{\r\n\r\n    uint256[] employeeId;\r\n}\r\n\r\nmapping(uint8 => IVerifier) internal verifiers;\r\n\r\naddress[] listOfEmployer;\r\n\r\nuint256[] leaves;\r\n\r\nmapping(uint256 => employee) idToemployee;\r\n\r\nmapping(address => employer)  public addressToemployer;\r\n\r\nmapping(address => listOfemployees) addressToemployees;\r\n\r\nmapping(address => uint256) addressTofundValue;\r\n\r\nmapping(uint256 => uint256) notesTosalary;\r\n\r\nuint256 public employerCount;\r\nuint256 public employeesCount;\r\n\r\n\r\n\r\naddress admin;\r\n\r\nconstructor(address _verifiersAddress) {\r\n\r\n   admin = msg.sender;\r\n   verifiers[20] = IVerifier(_verifiersAddress);\r\n\r\n  }\r\n\r\nmodifier onlyAdmin(address _sender) {\r\n    require(admin == _sender,\"Sender is not Admin.\");\r\n    _;\r\n}\r\n\r\nmodifier onlyEmployer(address _sender) {\r\n    require(addressToemployer[_sender].state == employerState.active, \"Employer is not active\");\r\n    _;\r\n}\r\n\r\n\r\nfunction createEmployer(address _employerAddress) public override onlyAdmin(msg.sender){\r\n\r\n    employerCount += 1 ;\r\n\r\n    _createGroup(employerCount, 20, 0);\r\n\r\n    employer memory _employer;\r\n\r\n    _employer.employerId = employerCount;\r\n\r\n    _employer.state = employerState.active;\r\n\r\n    _employer.commitmentCheck = false;\r\n\r\n    addressToemployer[_employerAddress] = _employer;\r\n\r\n    listOfEmployer.push(_employerAddress);\r\n\r\n    emit employerCreated(_employerAddress);\r\n}\r\n\r\nfunction addEmployerCommitment(uint256 _commitment) public override onlyEmployer(msg.sender){\r\n\r\n    require(addressToemployer[msg.sender].commitmentCheck == false,\"Already updated commitment\");\r\n\r\n    addressToemployer[msg.sender].employerCommitment = _commitment;\r\n\r\n    addressToemployer[msg.sender].commitmentCheck = true;\r\n\r\n}\r\n\r\nfunction addEmployee(string memory _employeeName) public override onlyEmployer(msg.sender)  {\r\n\r\n    require(keccak256(abi.encodePacked(_employeeName)) != keccak256(abi.encodePacked(\"\")),\"Please Enter employeeName\");\r\n\r\n    employee memory _addemployee;\r\n\r\n    employeesCount += 1;\r\n\r\n    _addemployee.employeeId = employeesCount;\r\n\r\n    _addemployee.employeeName = _employeeName;\r\n\r\n    _addemployee.state = employeeState.active;\r\n\r\n    _addemployee.employerId = addressToemployer[msg.sender].employerId;\r\n\r\n    _addemployee.commitmentCheck = false;\r\n\r\n    addressToemployees[msg.sender].employeeId.push(employeesCount);\r\n\r\n    idToemployee[employeesCount] = _addemployee;\r\n\r\n    emit employeeCreated(_employeeName,employeesCount);\r\n\r\n}\r\n\r\nfunction addEmployeeCommitment(uint256 _commitment,uint256 _id) public override {\r\n\r\n    require(idToemployee[_id].commitmentCheck == false,\"Already updated commitment\");\r\n\r\n    idToemployee[_id].employeeCommitment = _commitment;\r\n\r\n    idToemployee[_id].commitmentCheck = true;\r\n}\r\n\r\nfunction getEmployeeIdList() public view override onlyEmployer(msg.sender) returns(uint256[] memory _employeeIdList) {\r\n    return(addressToemployees[msg.sender].employeeId);\r\n}\r\n\r\nfunction getEmployerList() public view override onlyAdmin(msg.sender) returns (address[] memory _employerList) {\r\n    return(listOfEmployer);\r\n}\r\n\r\nfunction getEmployeeDetails(uint256 _id) public view override onlyEmployer(msg.sender) returns(string memory _employeeName, employeeState _state,uint256 _employerId,uint256 _employeeCommitment) {\r\n    employee memory _employeeDetails;\r\n    _employeeDetails = idToemployee[_id];\r\n\r\n    return(_employeeDetails.employeeName,_employeeDetails.state,_employeeDetails.employerId,_employeeDetails.employeeCommitment);\r\n}\r\n\r\nfunction getEmployeeEmployerId(uint256 _id) public view override returns(uint256 _employerId){\r\n    employee memory _employeeDetails;\r\n    _employeeDetails = idToemployee[_id];\r\n\r\n    return(_employeeDetails.employerId);\r\n}\r\n\r\nfunction getLeaves() public view override returns(uint256[] memory _leaves){\r\n    return(leaves);\r\n}\r\n\r\nfunction addfundToContract() public payable override onlyEmployer(msg.sender) {\r\n    addressTofundValue[msg.sender] += msg.value;\r\n}\r\n\r\nfunction getAvailableFund() public view override onlyEmployer(msg.sender) returns(uint256 _fundValue) {\r\n    return(addressTofundValue[msg.sender]);\r\n}\r\n\r\nfunction addNotes(uint256 _employeeId,uint256 _salary, uint256 _receivedCommitment,uint256 _identityCommitment) public override onlyEmployer(msg.sender){\r\n    employer memory _employer;\r\n    employee memory _employee;\r\n    _employer = addressToemployer[msg.sender];\r\n    _employee = idToemployee[_employeeId];\r\n    uint256 _employerId = _employer.employerId;\r\n\r\n    uint256 _fund = addressTofundValue[msg.sender];\r\n    \r\n    require(_employer.employerCommitment == _receivedCommitment,\"Employer commitment is not valid.\");\r\n\r\n    require(_fund >= _salary,\"Require fund is not available, Please add fund.\");\r\n\r\n    _addMember(_employerId, _identityCommitment);\r\n \r\n    notesTosalary[_identityCommitment] = _salary;\r\n\r\n    addressTofundValue[msg.sender] = _fund - _salary;\r\n\r\n    leaves.push(_identityCommitment);\r\n\r\n  }\r\n\r\n  function addToleaves(uint256 _a) public onlyEmployer(msg.sender) {\r\n      uint256 _employerId = addressToemployer[msg.sender].employerId;\r\n      _addMember(_employerId, _a);\r\n  }\r\n\r\n\r\n  function withdrawNotes(uint256 _withdrawalNotes,address payable _withdrawalAddress,bytes32 withdraw,uint256 nullifierHash,uint256 employerId,uint256[8] calldata proof) public override  {\r\n\r\n    \r\n    uint256 root = getRoot(employerId);\r\n    IVerifier verifier = verifiers[20];\r\n\r\n    _verifyProof(withdraw, root, nullifierHash, employerId, proof, verifier);\r\n\r\n    uint256 _salary = notesTosalary[_withdrawalNotes];\r\n\r\n    require(_withdrawalAddress.send(_salary),\"Account transfer fail.\");\r\n\r\n    // Prevent double-voting (nullifierHash = hash(pollId + identityNullifier)).\r\n    _saveNullifierHash(nullifierHash);\r\n\r\n  }\r\n\r\n}",
  "sourcePath": "F:\\Blockchain\\Harmony\\ZKPayroll\\Backend\\contracts\\ZKPayroll.sol",
  "compiler": {
    "name": "solc",
    "version": "0.8.10+commit.fc410830.Emscripten.clang"
  },
  "schemaVersion": "3.4.3",
  "updatedAt": "2022-04-25T20:17:12.585Z",
  "networkType": "ethereum",
  "devdoc": {
    "kind": "dev",
    "methods": {
      "getDepth(uint256)": {
        "details": "See {ISemaphoreGroups-getDepth}."
      },
      "getNumberOfLeaves(uint256)": {
        "details": "See {ISemaphoreGroups-getNumberOfLeaves}."
      },
      "getRoot(uint256)": {
        "details": "See {ISemaphoreGroups-getRoot}."
      }
    },
    "version": 1
  },
  "userdoc": {
    "events": {
      "NullifierHashAdded(uint256)": {
        "notice": "Emitted when a proof is verified correctly and a new nullifier hash is added."
      }
    },
    "kind": "user",
    "methods": {},
    "version": 1
  }
}