{
  "contractName": "ZKPayroll",
  "abi": [
    {
      "inputs": [
        {
          "internalType": "address",
          "name": "_verifiersAddress",
          "type": "address"
        }
      ],
      "stateMutability": "nonpayable",
      "type": "constructor"
    },
    {
      "anonymous": false,
      "inputs": [
        {
          "indexed": true,
          "internalType": "uint256",
          "name": "groupId",
          "type": "uint256"
        },
        {
          "indexed": false,
          "internalType": "uint8",
          "name": "depth",
          "type": "uint8"
        },
        {
          "indexed": false,
          "internalType": "uint256",
          "name": "zeroValue",
          "type": "uint256"
        }
      ],
      "name": "GroupCreated",
      "type": "event"
    },
    {
      "anonymous": false,
      "inputs": [
        {
          "indexed": true,
          "internalType": "uint256",
          "name": "groupId",
          "type": "uint256"
        },
        {
          "indexed": false,
          "internalType": "uint256",
          "name": "identityCommitment",
          "type": "uint256"
        },
        {
          "indexed": false,
          "internalType": "uint256",
          "name": "root",
          "type": "uint256"
        }
      ],
      "name": "MemberAdded",
      "type": "event"
    },
    {
      "anonymous": false,
      "inputs": [
        {
          "indexed": true,
          "internalType": "uint256",
          "name": "groupId",
          "type": "uint256"
        },
        {
          "indexed": false,
          "internalType": "uint256",
          "name": "identityCommitment",
          "type": "uint256"
        },
        {
          "indexed": false,
          "internalType": "uint256",
          "name": "root",
          "type": "uint256"
        }
      ],
      "name": "MemberRemoved",
      "type": "event"
    },
    {
      "anonymous": false,
      "inputs": [
        {
          "indexed": false,
          "internalType": "uint256",
          "name": "nullifierHash",
          "type": "uint256"
        }
      ],
      "name": "NullifierHashAdded",
      "type": "event"
    },
    {
      "anonymous": false,
      "inputs": [
        {
          "indexed": false,
          "internalType": "string",
          "name": "_employeeName",
          "type": "string"
        },
        {
          "indexed": false,
          "internalType": "uint256",
          "name": "_employeeId",
          "type": "uint256"
        }
      ],
      "name": "employeeCreated",
      "type": "event"
    },
    {
      "anonymous": false,
      "inputs": [
        {
          "indexed": false,
          "internalType": "address",
          "name": "_employerAddress",
          "type": "address"
        }
      ],
      "name": "employerCreated",
      "type": "event"
    },
    {
      "anonymous": false,
      "inputs": [
        {
          "indexed": false,
          "internalType": "uint256",
          "name": "_note",
          "type": "uint256"
        }
      ],
      "name": "noteCreated",
      "type": "event"
    },
    {
      "inputs": [],
      "name": "_hash",
      "outputs": [
        {
          "internalType": "uint256",
          "name": "",
          "type": "uint256"
        }
      ],
      "stateMutability": "view",
      "type": "function",
      "constant": true
    },
    {
      "inputs": [
        {
          "internalType": "address",
          "name": "",
          "type": "address"
        }
      ],
      "name": "addressToemployer",
      "outputs": [
        {
          "internalType": "uint256",
          "name": "employerCommitment",
          "type": "uint256"
        },
        {
          "internalType": "uint256",
          "name": "employerId",
          "type": "uint256"
        },
        {
          "internalType": "enum IZKPayroll.employerState",
          "name": "state",
          "type": "uint8"
        },
        {
          "internalType": "bool",
          "name": "commitmentCheck",
          "type": "bool"
        }
      ],
      "stateMutability": "view",
      "type": "function",
      "constant": true
    },
    {
      "inputs": [],
      "name": "employeesCount",
      "outputs": [
        {
          "internalType": "uint256",
          "name": "",
          "type": "uint256"
        }
      ],
      "stateMutability": "view",
      "type": "function",
      "constant": true
    },
    {
      "inputs": [],
      "name": "employerCount",
      "outputs": [
        {
          "internalType": "uint256",
          "name": "",
          "type": "uint256"
        }
      ],
      "stateMutability": "view",
      "type": "function",
      "constant": true
    },
    {
      "inputs": [
        {
          "internalType": "uint256",
          "name": "groupId",
          "type": "uint256"
        }
      ],
      "name": "getDepth",
      "outputs": [
        {
          "internalType": "uint8",
          "name": "",
          "type": "uint8"
        }
      ],
      "stateMutability": "view",
      "type": "function",
      "constant": true
    },
    {
      "inputs": [
        {
          "internalType": "uint256",
          "name": "groupId",
          "type": "uint256"
        }
      ],
      "name": "getNumberOfLeaves",
      "outputs": [
        {
          "internalType": "uint256",
          "name": "",
          "type": "uint256"
        }
      ],
      "stateMutability": "view",
      "type": "function",
      "constant": true
    },
    {
      "inputs": [
        {
          "internalType": "uint256",
          "name": "groupId",
          "type": "uint256"
        }
      ],
      "name": "getRoot",
      "outputs": [
        {
          "internalType": "uint256",
          "name": "",
          "type": "uint256"
        }
      ],
      "stateMutability": "view",
      "type": "function",
      "constant": true
    },
    {
      "inputs": [
        {
          "internalType": "address",
          "name": "_employerAddress",
          "type": "address"
        }
      ],
      "name": "createEmployer",
      "outputs": [],
      "stateMutability": "nonpayable",
      "type": "function"
    },
    {
      "inputs": [
        {
          "internalType": "uint256",
          "name": "_commitment",
          "type": "uint256"
        }
      ],
      "name": "addEmployerCommitment",
      "outputs": [],
      "stateMutability": "nonpayable",
      "type": "function"
    },
    {
      "inputs": [
        {
          "internalType": "string",
          "name": "_employeeName",
          "type": "string"
        }
      ],
      "name": "addEmployee",
      "outputs": [],
      "stateMutability": "nonpayable",
      "type": "function"
    },
    {
      "inputs": [
        {
          "internalType": "uint256",
          "name": "_commitment",
          "type": "uint256"
        },
        {
          "internalType": "uint256",
          "name": "_id",
          "type": "uint256"
        }
      ],
      "name": "addEmployeeCommitment",
      "outputs": [],
      "stateMutability": "nonpayable",
      "type": "function"
    },
    {
      "inputs": [],
      "name": "getEmployeeIdList",
      "outputs": [
        {
          "internalType": "uint256[]",
          "name": "_employeeIdList",
          "type": "uint256[]"
        }
      ],
      "stateMutability": "view",
      "type": "function",
      "constant": true
    },
    {
      "inputs": [
        {
          "internalType": "uint256",
          "name": "_employerId",
          "type": "uint256"
        }
      ],
      "name": "getEmployerLeaves",
      "outputs": [
        {
          "internalType": "uint256[]",
          "name": "_employerLeaves",
          "type": "uint256[]"
        }
      ],
      "stateMutability": "view",
      "type": "function",
      "constant": true
    },
    {
      "inputs": [],
      "name": "getEmployerList",
      "outputs": [
        {
          "internalType": "address[]",
          "name": "_employerList",
          "type": "address[]"
        }
      ],
      "stateMutability": "view",
      "type": "function",
      "constant": true
    },
    {
      "inputs": [
        {
          "internalType": "uint256",
          "name": "_id",
          "type": "uint256"
        }
      ],
      "name": "getEmployeeDetails",
      "outputs": [
        {
          "internalType": "string",
          "name": "_employeeName",
          "type": "string"
        },
        {
          "internalType": "enum IZKPayroll.employeeState",
          "name": "_state",
          "type": "uint8"
        },
        {
          "internalType": "uint256",
          "name": "_employerId",
          "type": "uint256"
        },
        {
          "internalType": "uint256",
          "name": "_employeeCommitment",
          "type": "uint256"
        }
      ],
      "stateMutability": "view",
      "type": "function",
      "constant": true
    },
    {
      "inputs": [
        {
          "internalType": "uint256",
          "name": "_id",
          "type": "uint256"
        }
      ],
      "name": "getEmployeeEmployerId",
      "outputs": [
        {
          "internalType": "uint256",
          "name": "_employerId",
          "type": "uint256"
        }
      ],
      "stateMutability": "view",
      "type": "function",
      "constant": true
    },
    {
      "inputs": [],
      "name": "addfundToContract",
      "outputs": [],
      "stateMutability": "payable",
      "type": "function",
      "payable": true
    },
    {
      "inputs": [],
      "name": "getAvailableFund",
      "outputs": [
        {
          "internalType": "uint256",
          "name": "_fundValue",
          "type": "uint256"
        }
      ],
      "stateMutability": "view",
      "type": "function",
      "constant": true
    },
    {
      "inputs": [
        {
          "internalType": "uint256",
          "name": "_employeeId",
          "type": "uint256"
        },
        {
          "internalType": "uint256",
          "name": "_salary",
          "type": "uint256"
        },
        {
          "internalType": "uint256",
          "name": "_receivedCommitment",
          "type": "uint256"
        },
        {
          "internalType": "uint256",
          "name": "_identityCommitment",
          "type": "uint256"
        }
      ],
      "name": "addNotes",
      "outputs": [],
      "stateMutability": "nonpayable",
      "type": "function"
    },
    {
      "inputs": [
        {
          "internalType": "uint256",
          "name": "_withdrawalNotes",
          "type": "uint256"
        },
        {
          "internalType": "address payable",
          "name": "_withdrawalAddress",
          "type": "address"
        },
        {
          "internalType": "bytes32",
          "name": "withdraw",
          "type": "bytes32"
        },
        {
          "internalType": "uint256",
          "name": "nullifierHash",
          "type": "uint256"
        },
        {
          "internalType": "uint256",
          "name": "employerId",
          "type": "uint256"
        },
        {
          "internalType": "uint256[8]",
          "name": "proof",
          "type": "uint256[8]"
        }
      ],
      "name": "withdrawNotes",
      "outputs": [],
      "stateMutability": "nonpayable",
      "type": "function"
    }
  ],
  "bytecode": "0x60806040523480156200001157600080fd5b50604051620036d8380380620036d883398181016040528101906200003791906200013f565b33600d60006101000a81548173ffffffffffffffffffffffffffffffffffffffff021916908373ffffffffffffffffffffffffffffffffffffffff1602179055508060026000601460ff16815260200190815260200160002060006101000a81548173ffffffffffffffffffffffffffffffffffffffff021916908373ffffffffffffffffffffffffffffffffffffffff1602179055505062000171565b600080fd5b600073ffffffffffffffffffffffffffffffffffffffff82169050919050565b60006200010782620000da565b9050919050565b6200011981620000fa565b81146200012557600080fd5b50565b60008151905062000139816200010e565b92915050565b600060208284031215620001585762000157620000d5565b5b6000620001688482850162000128565b91505092915050565b61355780620001816000396000f3fe60806040526004361061011f5760003560e01c806372ed9ef9116100a0578063907312231161006457806390731223146103b25780639b24b3b0146103f2578063a98b371b1461042f578063b9c78c2b1461046f578063bdd4a068146104ac5761011f565b806372ed9ef9146102cd57806375e618c9146102f857806379ceb311146103355780638b3aa6a41461035e5780638e543a7c146103875761011f565b806325d4c9f6116100e757806325d4c9f6146101ea5780632d2d03a6146102275780633d2ba1d9146102505780634b62c466146102795780635089f38d146102a45761011f565b80630bbcf45b1461012457806319b05bc6146101615780631d4bc9481461018c5780632308480b146101b75780632369ac45146101e0575b600080fd5b34801561013057600080fd5b5061014b600480360381019061014691906121dd565b6104d7565b6040516101589190612219565b60405180910390f35b34801561016d57600080fd5b50610176610614565b60405161018391906122f2565b60405180910390f35b34801561019857600080fd5b506101a1610763565b6040516101ae9190612404565b60405180910390f35b3480156101c357600080fd5b506101de60048036038101906101d99190612452565b610883565b005b6101e8610ad9565b005b3480156101f657600080fd5b50610211600480360381019061020c91906121dd565b610be8565b60405161021e91906122f2565b60405180910390f35b34801561023357600080fd5b5061024e600480360381019061024991906125c5565b610c56565b005b34801561025c57600080fd5b50610277600480360381019061027291906126a9565b610fad565b005b34801561028557600080fd5b5061028e6110a4565b60405161029b9190612219565b60405180910390f35b3480156102b057600080fd5b506102cb60048036038101906102c69190612737565b6110aa565b005b3480156102d957600080fd5b506102e26114db565b6040516102ef9190612219565b60405180910390f35b34801561030457600080fd5b5061031f600480360381019061031a91906121dd565b6114e1565b60405161032c91906127ba565b60405180910390f35b34801561034157600080fd5b5061035c600480360381019061035791906121dd565b61150e565b005b34801561036a57600080fd5b50610385600480360381019061038091906127d5565b611700565b005b34801561039357600080fd5b5061039c6117b8565b6040516103a99190612219565b60405180910390f35b3480156103be57600080fd5b506103d960048036038101906103d49190612452565b6118b6565b6040516103e994939291906128a7565b60405180910390f35b3480156103fe57600080fd5b50610419600480360381019061041491906121dd565b611900565b6040516104269190612219565b60405180910390f35b34801561043b57600080fd5b50610456600480360381019061045191906121dd565b611920565b60405161046694939291906129bc565b60405180910390f35b34801561047b57600080fd5b50610496600480360381019061049191906121dd565b611b30565b6040516104a39190612219565b60405180910390f35b3480156104b857600080fd5b506104c1611b50565b6040516104ce9190612219565b60405180910390f35b60006104e161206a565b600560008481526020019081526020016000206040518060c001604052908160008201548152602001600182015481526020016002820154815260200160038201805461052d90612a37565b80601f016020809104026020016040519081016040528092919081815260200182805461055990612a37565b80156105a65780601f1061057b576101008083540402835291602001916105a6565b820191906000526020600020905b81548152906001019060200180831161058957829003601f168201915b505050505081526020016004820160009054906101000a900460ff1660018111156105d4576105d3612815565b5b60018111156105e6576105e5612815565b5b81526020016004820160019054906101000a900460ff16151515158152505090508060400151915050919050565b60603360018081111561062a57610629612815565b5b600660008373ffffffffffffffffffffffffffffffffffffffff1673ffffffffffffffffffffffffffffffffffffffff16815260200190815260200160002060020160009054906101000a900460ff16600181111561068c5761068b612815565b5b146106cc576040517f08c379a00000000000000000000000000000000000000000000000000000000081526004016106c390612ab5565b60405180910390fd5b600760003373ffffffffffffffffffffffffffffffffffffffff1673ffffffffffffffffffffffffffffffffffffffff16815260200190815260200160002060000180548060200260200160405190810160405280929190818152602001828054801561075857602002820191906000526020600020905b815481526020019060010190808311610744575b505050505091505090565b6060338073ffffffffffffffffffffffffffffffffffffffff16600d60009054906101000a900473ffffffffffffffffffffffffffffffffffffffff1673ffffffffffffffffffffffffffffffffffffffff16146107f6576040517f08c379a00000000000000000000000000000000000000000000000000000000081526004016107ed90612b21565b60405180910390fd5b600380548060200260200160405190810160405280929190818152602001828054801561087857602002820191906000526020600020905b8160009054906101000a900473ffffffffffffffffffffffffffffffffffffffff1673ffffffffffffffffffffffffffffffffffffffff168152602001906001019080831161082e575b505050505091505090565b338073ffffffffffffffffffffffffffffffffffffffff16600d60009054906101000a900473ffffffffffffffffffffffffffffffffffffffff1673ffffffffffffffffffffffffffffffffffffffff1614610914576040517f08c379a000000000000000000000000000000000000000000000000000000000815260040161090b90612b21565b60405180910390fd5b6001600a60008282546109279190612b70565b9250508190555061093d600a5460146000611b56565b6109456120b4565b600a5481602001818152505060018160400190600181111561096a57610969612815565b5b9081600181111561097e5761097d612815565b5b81525050600081606001901515908115158152505080600660008573ffffffffffffffffffffffffffffffffffffffff1673ffffffffffffffffffffffffffffffffffffffff168152602001908152602001600020600082015181600001556020820151816001015560408201518160020160006101000a81548160ff02191690836001811115610a1257610a11612815565b5b021790555060608201518160020160016101000a81548160ff0219169083151502179055509050506003839080600181540180825580915050600190039060005260206000200160009091909190916101000a81548173ffffffffffffffffffffffffffffffffffffffff021916908373ffffffffffffffffffffffffffffffffffffffff1602179055507fbc10ec19de4ce59ac4b5972414228c992109c99041af4a98ee298aa3bfffafa383604051610acc9190612bd5565b60405180910390a1505050565b33600180811115610aed57610aec612815565b5b600660008373ffffffffffffffffffffffffffffffffffffffff1673ffffffffffffffffffffffffffffffffffffffff16815260200190815260200160002060020160009054906101000a900460ff166001811115610b4f57610b4e612815565b5b14610b8f576040517f08c379a0000000000000000000000000000000000000000000000000000000008152600401610b8690612ab5565b60405180910390fd5b34600860003373ffffffffffffffffffffffffffffffffffffffff1673ffffffffffffffffffffffffffffffffffffffff1681526020019081526020016000206000828254610bde9190612b70565b9250508190555050565b606060046000838152602001908152602001600020600001805480602002602001604051908101604052809291908181526020018280548015610c4a57602002820191906000526020600020905b815481526020019060010190808311610c36575b50505050509050919050565b33600180811115610c6a57610c69612815565b5b600660008373ffffffffffffffffffffffffffffffffffffffff1673ffffffffffffffffffffffffffffffffffffffff16815260200190815260200160002060020160009054906101000a900460ff166001811115610ccc57610ccb612815565b5b14610d0c576040517f08c379a0000000000000000000000000000000000000000000000000000000008152600401610d0390612ab5565b60405180910390fd5b604051602001610d1b90612c21565b6040516020818303038152906040528051906020012082604051602001610d429190612c67565b604051602081830303815290604052805190602001201415610d99576040517f08c379a0000000000000000000000000000000000000000000000000000000008152600401610d9090612cca565b60405180910390fd5b610da161206a565b6001600b6000828254610db49190612b70565b92505081905550600b54816020018181525050828160600181905250600181608001906001811115610de957610de8612815565b5b90816001811115610dfd57610dfc612815565b5b81525050600660003373ffffffffffffffffffffffffffffffffffffffff1673ffffffffffffffffffffffffffffffffffffffff1681526020019081526020016000206001015481604001818152505060008160a0019015159081151581525050600760003373ffffffffffffffffffffffffffffffffffffffff1673ffffffffffffffffffffffffffffffffffffffff168152602001908152602001600020600001600b5490806001815401808255809150506001900390600052602060002001600090919091909150558060056000600b5481526020019081526020016000206000820151816000015560208201518160010155604082015181600201556060820151816003019080519060200190610f199291906120f0565b5060808201518160040160006101000a81548160ff02191690836001811115610f4557610f44612815565b5b021790555060a08201518160040160016101000a81548160ff0219169083151502179055509050507f29f60a863dde0da64901033655ff093ef68ef23d333bf462fb8552423ab759bd83600b54604051610fa0929190612cea565b60405180910390a1505050565b6000610fb883611900565b9050600060026000601460ff16815260200190815260200160002060009054906101000a900473ffffffffffffffffffffffffffffffffffffffff169050611004868387878786611cc4565b6000600960008a81526020019081526020016000205490508773ffffffffffffffffffffffffffffffffffffffff166108fc829081150290604051600060405180830381858888f19350505050611090576040517f08c379a000000000000000000000000000000000000000000000000000000000815260040161108790612d66565b60405180910390fd5b61109986611eed565b505050505050505050565b600a5481565b336001808111156110be576110bd612815565b5b600660008373ffffffffffffffffffffffffffffffffffffffff1673ffffffffffffffffffffffffffffffffffffffff16815260200190815260200160002060020160009054906101000a900460ff1660018111156111205761111f612815565b5b14611160576040517f08c379a000000000000000000000000000000000000000000000000000000000815260040161115790612ab5565b60405180910390fd5b6111686120b4565b61117061206a565b600660003373ffffffffffffffffffffffffffffffffffffffff1673ffffffffffffffffffffffffffffffffffffffff16815260200190815260200160002060405180608001604052908160008201548152602001600182015481526020016002820160009054906101000a900460ff1660018111156111f3576111f2612815565b5b600181111561120557611204612815565b5b81526020016002820160019054906101000a900460ff1615151515815250509150600560008881526020019081526020016000206040518060c001604052908160008201548152602001600182015481526020016002820154815260200160038201805461127290612a37565b80601f016020809104026020016040519081016040528092919081815260200182805461129e90612a37565b80156112eb5780601f106112c0576101008083540402835291602001916112eb565b820191906000526020600020905b8154815290600101906020018083116112ce57829003601f168201915b505050505081526020016004820160009054906101000a900460ff16600181111561131957611318612815565b5b600181111561132b5761132a612815565b5b81526020016004820160019054906101000a900460ff16151515158152505090506000826020015190506000600860003373ffffffffffffffffffffffffffffffffffffffff1673ffffffffffffffffffffffffffffffffffffffff168152602001908152602001600020549050868460000151146113df576040517f08c379a00000000000000000000000000000000000000000000000000000000081526004016113d690612df8565b60405180910390fd5b87811015611422576040517f08c379a000000000000000000000000000000000000000000000000000000000815260040161141990612e8a565b60405180910390fd5b61142c8287611f1b565b87600960008881526020019081526020016000208190555087816114509190612eaa565b600860003373ffffffffffffffffffffffffffffffffffffffff1673ffffffffffffffffffffffffffffffffffffffff1681526020019081526020016000208190555060046000838152602001908152602001600020600001869080600181540180825580915050600190039060005260206000200160009091909190915055505050505050505050565b600c5481565b60006001600083815260200190815260200160002060000160009054906101000a900460ff169050919050565b3360018081111561152257611521612815565b5b600660008373ffffffffffffffffffffffffffffffffffffffff1673ffffffffffffffffffffffffffffffffffffffff16815260200190815260200160002060020160009054906101000a900460ff16600181111561158457611583612815565b5b146115c4576040517f08c379a00000000000000000000000000000000000000000000000000000000081526004016115bb90612ab5565b60405180910390fd5b60001515600660003373ffffffffffffffffffffffffffffffffffffffff1673ffffffffffffffffffffffffffffffffffffffff16815260200190815260200160002060020160019054906101000a900460ff1615151461165a576040517f08c379a000000000000000000000000000000000000000000000000000000000815260040161165190612f2a565b60405180910390fd5b81600660003373ffffffffffffffffffffffffffffffffffffffff1673ffffffffffffffffffffffffffffffffffffffff168152602001908152602001600020600001819055506001600660003373ffffffffffffffffffffffffffffffffffffffff1673ffffffffffffffffffffffffffffffffffffffff16815260200190815260200160002060020160016101000a81548160ff0219169083151502179055505050565b600015156005600083815260200190815260200160002060040160019054906101000a900460ff1615151461176a576040517f08c379a000000000000000000000000000000000000000000000000000000000815260040161176190612f2a565b60405180910390fd5b81600560008381526020019081526020016000206000018190555060016005600083815260200190815260200160002060040160016101000a81548160ff0219169083151502179055505050565b6000336001808111156117ce576117cd612815565b5b600660008373ffffffffffffffffffffffffffffffffffffffff1673ffffffffffffffffffffffffffffffffffffffff16815260200190815260200160002060020160009054906101000a900460ff1660018111156118305761182f612815565b5b14611870576040517f08c379a000000000000000000000000000000000000000000000000000000000815260040161186790612ab5565b60405180910390fd5b600860003373ffffffffffffffffffffffffffffffffffffffff1673ffffffffffffffffffffffffffffffffffffffff1681526020019081526020016000205491505090565b60066020528060005260406000206000915090508060000154908060010154908060020160009054906101000a900460ff16908060020160019054906101000a900460ff16905084565b600060016000838152602001908152602001600020600101549050919050565b606060008060003360018081111561193b5761193a612815565b5b600660008373ffffffffffffffffffffffffffffffffffffffff1673ffffffffffffffffffffffffffffffffffffffff16815260200190815260200160002060020160009054906101000a900460ff16600181111561199d5761199c612815565b5b146119dd576040517f08c379a00000000000000000000000000000000000000000000000000000000081526004016119d490612ab5565b60405180910390fd5b6119e561206a565b600560008881526020019081526020016000206040518060c0016040529081600082015481526020016001820154815260200160028201548152602001600382018054611a3190612a37565b80601f0160208091040260200160405190810160405280929190818152602001828054611a5d90612a37565b8015611aaa5780601f10611a7f57610100808354040283529160200191611aaa565b820191906000526020600020905b815481529060010190602001808311611a8d57829003601f168201915b505050505081526020016004820160009054906101000a900460ff166001811115611ad857611ad7612815565b5b6001811115611aea57611ae9612815565b5b81526020016004820160019054906101000a900460ff16151515158152505090508060600151816080015182604001518360000151955095509550955050509193509193565b600060016000838152602001908152602001600020600201549050919050565b600b5481565b7f30644e72e131a029b85045b68181585d2833e84879b9709143e1f593f00000018310611bb8576040517f08c379a0000000000000000000000000000000000000000000000000000000008152600401611baf90612fbc565b60405180910390fd5b6000611bc3846114e1565b60ff1614611c06576040517f08c379a0000000000000000000000000000000000000000000000000000000008152600401611bfd9061304e565b60405180910390fd5b6001600084815260200190815260200160002073__IncrementalBinaryTree_________________63b4bdd117909184846040518463ffffffff1660e01b8152600401611c5593929190613093565b60006040518083038186803b158015611c6d57600080fd5b505af4158015611c81573d6000803e3d6000fd5b50505050827fc3082aa494e9088c2c9f0fb62a0b6bd46e6699acb94cfba35be29b95a93f68c88383604051611cb79291906130ca565b60405180910390a2505050565b60008085815260200190815260200160002060009054906101000a900460ff1615611d24576040517f08c379a0000000000000000000000000000000000000000000000000000000008152600401611d1b90613165565b60405180910390fd5b6000611d2f87612033565b90508173ffffffffffffffffffffffffffffffffffffffff16635fe8c13b604051806040016040528086600060088110611d6c57611d6b613185565b5b6020020135815260200186600160088110611d8a57611d89613185565b5b60200201358152506040518060400160405280604051806040016040528089600260088110611dbc57611dbb613185565b5b6020020135815260200189600360088110611dda57611dd9613185565b5b60200201358152508152602001604051806040016040528089600460088110611e0657611e05613185565b5b6020020135815260200189600560088110611e2457611e23613185565b5b6020020135815250815250604051806040016040528088600660088110611e4e57611e4d613185565b5b6020020135815260200188600760088110611e6c57611e6b613185565b5b602002013581525060405180608001604052808c81526020018b81526020018781526020018a8152506040518563ffffffff1660e01b8152600401611eb494939291906133ba565b60006040518083038186803b158015611ecc57600080fd5b505afa158015611ee0573d6000803e3d6000fd5b5050505050505050505050565b600160008083815260200190815260200160002060006101000a81548160ff02191690831515021790555050565b6000611f26836114e1565b60ff161415611f6a576040517f08c379a0000000000000000000000000000000000000000000000000000000008152600401611f6190613473565b60405180910390fd5b6001600083815260200190815260200160002073__IncrementalBinaryTree_________________63168703fa9091836040518363ffffffff1660e01b8152600401611fb7929190613493565b60006040518083038186803b158015611fcf57600080fd5b505af4158015611fe3573d6000803e3d6000fd5b505050506000611ff283611900565b9050827f03fd27265b7dd1f55558bedc22a58fa3b10afb1be776e614bd5a7ba7b949940683836040516120269291906134bc565b60405180910390a2505050565b60006008826040516020016120489190613506565b6040516020818303038152906040528051906020012060001c901c9050919050565b6040518060c0016040528060008152602001600081526020016000815260200160608152602001600060018111156120a5576120a4612815565b5b81526020016000151581525090565b60405180608001604052806000815260200160008152602001600060018111156120e1576120e0612815565b5b81526020016000151581525090565b8280546120fc90612a37565b90600052602060002090601f01602090048101928261211e5760008555612165565b82601f1061213757805160ff1916838001178555612165565b82800160010185558215612165579182015b82811115612164578251825591602001919060010190612149565b5b5090506121729190612176565b5090565b5b8082111561218f576000816000905550600101612177565b5090565b6000604051905090565b600080fd5b600080fd5b6000819050919050565b6121ba816121a7565b81146121c557600080fd5b50565b6000813590506121d7816121b1565b92915050565b6000602082840312156121f3576121f261219d565b5b6000612201848285016121c8565b91505092915050565b612213816121a7565b82525050565b600060208201905061222e600083018461220a565b92915050565b600081519050919050565b600082825260208201905092915050565b6000819050602082019050919050565b612269816121a7565b82525050565b600061227b8383612260565b60208301905092915050565b6000602082019050919050565b600061229f82612234565b6122a9818561223f565b93506122b483612250565b8060005b838110156122e55781516122cc888261226f565b97506122d783612287565b9250506001810190506122b8565b5085935050505092915050565b6000602082019050818103600083015261230c8184612294565b905092915050565b600081519050919050565b600082825260208201905092915050565b6000819050602082019050919050565b600073ffffffffffffffffffffffffffffffffffffffff82169050919050565b600061236b82612340565b9050919050565b61237b81612360565b82525050565b600061238d8383612372565b60208301905092915050565b6000602082019050919050565b60006123b182612314565b6123bb818561231f565b93506123c683612330565b8060005b838110156123f75781516123de8882612381565b97506123e983612399565b9250506001810190506123ca565b5085935050505092915050565b6000602082019050818103600083015261241e81846123a6565b905092915050565b61242f81612360565b811461243a57600080fd5b50565b60008135905061244c81612426565b92915050565b6000602082840312156124685761246761219d565b5b60006124768482850161243d565b91505092915050565b600080fd5b600080fd5b6000601f19601f8301169050919050565b7f4e487b7100000000000000000000000000000000000000000000000000000000600052604160045260246000fd5b6124d282612489565b810181811067ffffffffffffffff821117156124f1576124f061249a565b5b80604052505050565b6000612504612193565b905061251082826124c9565b919050565b600067ffffffffffffffff8211156125305761252f61249a565b5b61253982612489565b9050602081019050919050565b82818337600083830152505050565b600061256861256384612515565b6124fa565b90508281526020810184848401111561258457612583612484565b5b61258f848285612546565b509392505050565b600082601f8301126125ac576125ab61247f565b5b81356125bc848260208601612555565b91505092915050565b6000602082840312156125db576125da61219d565b5b600082013567ffffffffffffffff8111156125f9576125f86121a2565b5b61260584828501612597565b91505092915050565b600061261982612340565b9050919050565b6126298161260e565b811461263457600080fd5b50565b60008135905061264681612620565b92915050565b6000819050919050565b61265f8161264c565b811461266a57600080fd5b50565b60008135905061267c81612656565b92915050565b600080fd5b6000819050826020600802820111156126a3576126a2612682565b5b92915050565b6000806000806000806101a087890312156126c7576126c661219d565b5b60006126d589828a016121c8565b96505060206126e689828a01612637565b95505060406126f789828a0161266d565b945050606061270889828a016121c8565b935050608061271989828a016121c8565b92505060a061272a89828a01612687565b9150509295509295509295565b600080600080608085870312156127515761275061219d565b5b600061275f878288016121c8565b9450506020612770878288016121c8565b9350506040612781878288016121c8565b9250506060612792878288016121c8565b91505092959194509250565b600060ff82169050919050565b6127b48161279e565b82525050565b60006020820190506127cf60008301846127ab565b92915050565b600080604083850312156127ec576127eb61219d565b5b60006127fa858286016121c8565b925050602061280b858286016121c8565b9150509250929050565b7f4e487b7100000000000000000000000000000000000000000000000000000000600052602160045260246000fd5b6002811061285557612854612815565b5b50565b600081905061286682612844565b919050565b600061287682612858565b9050919050565b6128868161286b565b82525050565b60008115159050919050565b6128a18161288c565b82525050565b60006080820190506128bc600083018761220a565b6128c9602083018661220a565b6128d6604083018561287d565b6128e36060830184612898565b95945050505050565b600081519050919050565b600082825260208201905092915050565b60005b8381101561292657808201518184015260208101905061290b565b83811115612935576000848401525b50505050565b6000612946826128ec565b61295081856128f7565b9350612960818560208601612908565b61296981612489565b840191505092915050565b6002811061298557612984612815565b5b50565b600081905061299682612974565b919050565b60006129a682612988565b9050919050565b6129b68161299b565b82525050565b600060808201905081810360008301526129d6818761293b565b90506129e560208301866129ad565b6129f2604083018561220a565b6129ff606083018461220a565b95945050505050565b7f4e487b7100000000000000000000000000000000000000000000000000000000600052602260045260246000fd5b60006002820490506001821680612a4f57607f821691505b60208210811415612a6357612a62612a08565b5b50919050565b7f456d706c6f796572206973206e6f742061637469766500000000000000000000600082015250565b6000612a9f6016836128f7565b9150612aaa82612a69565b602082019050919050565b60006020820190508181036000830152612ace81612a92565b9050919050565b7f53656e646572206973206e6f742041646d696e2e000000000000000000000000600082015250565b6000612b0b6014836128f7565b9150612b1682612ad5565b602082019050919050565b60006020820190508181036000830152612b3a81612afe565b9050919050565b7f4e487b7100000000000000000000000000000000000000000000000000000000600052601160045260246000fd5b6000612b7b826121a7565b9150612b86836121a7565b9250827fffffffffffffffffffffffffffffffffffffffffffffffffffffffffffffffff03821115612bbb57612bba612b41565b5b828201905092915050565b612bcf81612360565b82525050565b6000602082019050612bea6000830184612bc6565b92915050565b600081905092915050565b50565b6000612c0b600083612bf0565b9150612c1682612bfb565b600082019050919050565b6000612c2c82612bfe565b9150819050919050565b6000612c41826128ec565b612c4b8185612bf0565b9350612c5b818560208601612908565b80840191505092915050565b6000612c738284612c36565b915081905092915050565b7f506c6561736520456e74657220656d706c6f7965654e616d6500000000000000600082015250565b6000612cb46019836128f7565b9150612cbf82612c7e565b602082019050919050565b60006020820190508181036000830152612ce381612ca7565b9050919050565b60006040820190508181036000830152612d04818561293b565b9050612d13602083018461220a565b9392505050565b7f4163636f756e74207472616e73666572206661696c2e00000000000000000000600082015250565b6000612d506016836128f7565b9150612d5b82612d1a565b602082019050919050565b60006020820190508181036000830152612d7f81612d43565b9050919050565b7f456d706c6f79657220636f6d6d69746d656e74206973206e6f742076616c696460008201527f2e00000000000000000000000000000000000000000000000000000000000000602082015250565b6000612de26021836128f7565b9150612ded82612d86565b604082019050919050565b60006020820190508181036000830152612e1181612dd5565b9050919050565b7f526571756972652066756e64206973206e6f7420617661696c61626c652c205060008201527f6c65617365206164642066756e642e0000000000000000000000000000000000602082015250565b6000612e74602f836128f7565b9150612e7f82612e18565b604082019050919050565b60006020820190508181036000830152612ea381612e67565b9050919050565b6000612eb5826121a7565b9150612ec0836121a7565b925082821015612ed357612ed2612b41565b5b828203905092915050565b7f416c7265616479207570646174656420636f6d6d69746d656e74000000000000600082015250565b6000612f14601a836128f7565b9150612f1f82612ede565b602082019050919050565b60006020820190508181036000830152612f4381612f07565b9050919050565b7f53656d6170686f726547726f7570733a2067726f7570206964206d757374206260008201527f65203c20534e41524b5f5343414c41525f4649454c4400000000000000000000602082015250565b6000612fa66036836128f7565b9150612fb182612f4a565b604082019050919050565b60006020820190508181036000830152612fd581612f99565b9050919050565b7f53656d6170686f726547726f7570733a2067726f757020616c7265616479206560008201527f7869737473000000000000000000000000000000000000000000000000000000602082015250565b60006130386025836128f7565b915061304382612fdc565b604082019050919050565b600060208201905081810360008301526130678161302b565b9050919050565b8082525050565b61307e8161279e565b82525050565b61308d816121a7565b82525050565b60006060820190506130a8600083018661306e565b6130b56020830185613075565b6130c26040830184613084565b949350505050565b60006040820190506130df60008301856127ab565b6130ec602083018461220a565b9392505050565b7f53656d6170686f7265436f72653a20796f752063616e6e6f742075736520746860008201527f652073616d65206e756c6c696669657220747769636500000000000000000000602082015250565b600061314f6036836128f7565b915061315a826130f3565b604082019050919050565b6000602082019050818103600083015261317e81613142565b9050919050565b7f4e487b7100000000000000000000000000000000000000000000000000000000600052603260045260246000fd5b600060029050919050565b600081905092915050565b6000819050919050565b6000602082019050919050565b6131ea816131b4565b6131f481846131bf565b92506131ff826131ca565b8060005b83811015613230578151613217878261226f565b9650613222836131d4565b925050600181019050613203565b505050505050565b600060029050919050565b600081905092915050565b6000819050919050565b600081905092915050565b61326c816131b4565b6132768184613258565b9250613281826131ca565b8060005b838110156132b2578151613299878261226f565b96506132a4836131d4565b925050600181019050613285565b505050505050565b60006132c68383613263565b60408301905092915050565b6000602082019050919050565b6132e881613238565b6132f28184613243565b92506132fd8261324e565b8060005b8381101561332e57815161331587826132ba565b9650613320836132d2565b925050600181019050613301565b505050505050565b600060049050919050565b600081905092915050565b6000819050919050565b6000602082019050919050565b61336c81613336565b6133768184613341565b92506133818261334c565b8060005b838110156133b2578151613399878261226f565b96506133a483613356565b925050600181019050613385565b505050505050565b6000610180820190506133d060008301876131e1565b6133dd60408301866132df565b6133ea60c08301856131e1565b6133f8610100830184613363565b95945050505050565b7f53656d6170686f726547726f7570733a2067726f757020646f6573206e6f742060008201527f6578697374000000000000000000000000000000000000000000000000000000602082015250565b600061345d6025836128f7565b915061346882613401565b604082019050919050565b6000602082019050818103600083015261348c81613450565b9050919050565b60006040820190506134a8600083018561306e565b6134b56020830184613084565b9392505050565b60006040820190506134d1600083018561220a565b6134de602083018461220a565b9392505050565b6000819050919050565b6135006134fb8261264c565b6134e5565b82525050565b600061351282846134ef565b6020820191508190509291505056fea264697066735822122044c58bb3a6ac9bff75edb82225b227ea0b4d4d5f806dfc3f8f06c2d012cbc67b64736f6c634300080a0033",
  "immutableReferences": {},
  "source": "// SPDX-License-Identifier: MIT\r\npragma solidity ^0.8.4;\r\nimport \"@appliedzkp/semaphore-contracts/base/SemaphoreCore.sol\";\r\nimport \"@appliedzkp/semaphore-contracts/base/SemaphoreGroups.sol\";\r\nimport \"../Interface/IZKPayroll.sol\";\r\n\r\n\r\ncontract ZKPayroll is IZKPayroll,SemaphoreCore,SemaphoreGroups {\r\n\r\n//  IVerifier public verifiers;\r\n\r\nstruct listOfemployees{\r\n\r\n    uint256[] employeeId;\r\n}\r\n\r\nstruct listOfLeaves{\r\n\r\n    uint256[] leaves;\r\n}\r\n\r\nmapping(uint8 => IVerifier) internal verifiers;\r\n\r\naddress[] listOfEmployer;\r\n\r\nmapping(uint256 => listOfLeaves) employerToLeaves;\r\n\r\nmapping(uint256 => employee) idToemployee;\r\n\r\nmapping(address => employer)  public addressToemployer;\r\n\r\nmapping(address => listOfemployees) addressToemployees;\r\n\r\nmapping(address => uint256) addressTofundValue;\r\n\r\nmapping(uint256 => uint256) notesTosalary;\r\n\r\nuint256 public employerCount;\r\nuint256 public employeesCount;\r\n\r\nuint256 public _hash;\r\n\r\naddress admin;\r\n\r\nconstructor(address _verifiersAddress) {\r\n\r\n   admin = msg.sender;\r\n   verifiers[20] = IVerifier(_verifiersAddress);\r\n\r\n  }\r\n\r\nmodifier onlyAdmin(address _sender) {\r\n    require(admin == _sender,\"Sender is not Admin.\");\r\n    _;\r\n}\r\n\r\nmodifier onlyEmployer(address _sender) {\r\n    require(addressToemployer[_sender].state == employerState.active, \"Employer is not active\");\r\n    _;\r\n}\r\n\r\n//for testing any one can register employer\r\n//On mainnet only Admin can register employer\r\nfunction createEmployer(address _employerAddress) public override onlyAdmin(msg.sender){\r\n\r\n    employerCount += 1 ;\r\n\r\n    _createGroup(employerCount, 20, 0);\r\n\r\n    employer memory _employer;\r\n\r\n    _employer.employerId = employerCount;\r\n\r\n    _employer.state = employerState.active;\r\n\r\n    _employer.commitmentCheck = false;\r\n\r\n    addressToemployer[_employerAddress] = _employer;\r\n\r\n    listOfEmployer.push(_employerAddress);\r\n\r\n    emit employerCreated(_employerAddress);\r\n}\r\n\r\nfunction addEmployerCommitment(uint256 _commitment) public override onlyEmployer(msg.sender){\r\n\r\n    require(addressToemployer[msg.sender].commitmentCheck == false,\"Already updated commitment\");\r\n\r\n    addressToemployer[msg.sender].employerCommitment = _commitment;\r\n\r\n    addressToemployer[msg.sender].commitmentCheck = true;\r\n\r\n}\r\n\r\nfunction addEmployee(string memory _employeeName) public override onlyEmployer(msg.sender)  {\r\n\r\n    require(keccak256(abi.encodePacked(_employeeName)) != keccak256(abi.encodePacked(\"\")),\"Please Enter employeeName\");\r\n\r\n    employee memory _addemployee;\r\n\r\n    employeesCount += 1;\r\n\r\n    _addemployee.employeeId = employeesCount;\r\n\r\n    _addemployee.employeeName = _employeeName;\r\n\r\n    _addemployee.state = employeeState.active;\r\n\r\n    _addemployee.employerId = addressToemployer[msg.sender].employerId;\r\n\r\n    _addemployee.commitmentCheck = false;\r\n\r\n    addressToemployees[msg.sender].employeeId.push(employeesCount);\r\n\r\n    idToemployee[employeesCount] = _addemployee;\r\n\r\n    emit employeeCreated(_employeeName,employeesCount);\r\n\r\n}\r\n\r\nfunction addEmployeeCommitment(uint256 _commitment,uint256 _id) public override {\r\n\r\n    require(idToemployee[_id].commitmentCheck == false,\"Already updated commitment\");\r\n\r\n    idToemployee[_id].employeeCommitment = _commitment;\r\n\r\n    idToemployee[_id].commitmentCheck = true;\r\n}\r\n\r\nfunction getEmployeeIdList() public view override onlyEmployer(msg.sender) returns(uint256[] memory _employeeIdList) {\r\n    return(addressToemployees[msg.sender].employeeId);\r\n}\r\n\r\nfunction getEmployerLeaves(uint256 _employerId) public view override returns(uint256[] memory _employerLeaves) {\r\n    return(employerToLeaves[_employerId].leaves);\r\n}\r\n\r\nfunction getEmployerList() public view override onlyAdmin(msg.sender) returns (address[] memory _employerList) {\r\n    return(listOfEmployer);\r\n}\r\n\r\nfunction getEmployeeDetails(uint256 _id) public view override onlyEmployer(msg.sender) returns(string memory _employeeName, employeeState _state,uint256 _employerId,uint256 _employeeCommitment) {\r\n    employee memory _employeeDetails;\r\n    _employeeDetails = idToemployee[_id];\r\n\r\n    return(_employeeDetails.employeeName,_employeeDetails.state,_employeeDetails.employerId,_employeeDetails.employeeCommitment);\r\n}\r\n\r\nfunction getEmployeeEmployerId(uint256 _id) public view override returns(uint256 _employerId){\r\n    employee memory _employeeDetails;\r\n    _employeeDetails = idToemployee[_id];\r\n\r\n    return(_employeeDetails.employerId);\r\n}\r\n\r\n\r\n\r\nfunction addfundToContract() public payable override onlyEmployer(msg.sender) {\r\n    addressTofundValue[msg.sender] += msg.value;\r\n}\r\n\r\nfunction getAvailableFund() public view override onlyEmployer(msg.sender) returns(uint256 _fundValue) {\r\n    return(addressTofundValue[msg.sender]);\r\n}\r\n\r\nfunction addNotes(uint256 _employeeId,uint256 _salary, uint256 _receivedCommitment,uint256 _identityCommitment) public override onlyEmployer(msg.sender){\r\n    employer memory _employer;\r\n    employee memory _employee;\r\n    _employer = addressToemployer[msg.sender];\r\n    _employee = idToemployee[_employeeId];\r\n    uint256 _employerId = _employer.employerId;\r\n\r\n    uint256 _fund = addressTofundValue[msg.sender];\r\n    \r\n    require(_employer.employerCommitment == _receivedCommitment,\"Employer commitment is not valid.\");\r\n\r\n    require(_fund >= _salary,\"Require fund is not available, Please add fund.\");\r\n\r\n    _addMember(_employerId, _identityCommitment);\r\n \r\n    notesTosalary[_identityCommitment] = _salary;\r\n\r\n    addressTofundValue[msg.sender] = _fund - _salary;\r\n\r\n    employerToLeaves[_employerId].leaves.push(_identityCommitment);\r\n\r\n  }\r\n\r\n  \r\n\r\n\r\n  function withdrawNotes(uint256 _withdrawalNotes,address payable _withdrawalAddress,bytes32 withdraw,uint256 nullifierHash,uint256 employerId,uint256[8] calldata proof) public override  {\r\n\r\n    \r\n    uint256 root = getRoot(employerId);\r\n    IVerifier verifier = verifiers[20];\r\n\r\n    _verifyProof(withdraw, root, nullifierHash, employerId, proof, verifier);\r\n\r\n    uint256 _salary = notesTosalary[_withdrawalNotes];\r\n\r\n    require(_withdrawalAddress.send(_salary),\"Account transfer fail.\");\r\n\r\n    // Prevent double-voting (nullifierHash = hash(pollId + identityNullifier)).\r\n    _saveNullifierHash(nullifierHash);\r\n\r\n  }\r\n\r\n}",
  "sourcePath": "F:\\Blockchain\\Harmony\\ZKPayroll\\Backend\\contracts\\ZKPayroll.sol",
  "compiler": {
    "name": "solc",
    "version": "0.8.10+commit.fc410830.Emscripten.clang"
  },
  "schemaVersion": "3.4.3",
  "updatedAt": "2022-05-07T12:21:48.139Z",
  "networkType": "ethereum",
  "devdoc": {
    "kind": "dev",
    "methods": {
      "getDepth(uint256)": {
        "details": "See {ISemaphoreGroups-getDepth}."
      },
      "getNumberOfLeaves(uint256)": {
        "details": "See {ISemaphoreGroups-getNumberOfLeaves}."
      },
      "getRoot(uint256)": {
        "details": "See {ISemaphoreGroups-getRoot}."
      }
    },
    "version": 1
  },
  "userdoc": {
    "events": {
      "NullifierHashAdded(uint256)": {
        "notice": "Emitted when a proof is verified correctly and a new nullifier hash is added."
      }
    },
    "kind": "user",
    "methods": {},
    "version": 1
  }
}